:020000040800F2
:10000000306C0020691D0008711D0008731D000878
:10001000751D0008771D0008791D00087B1D00086C
:100020007B1D00087B1D00087B1D00087B1D000850
:100030007B1D00087B1D000873A70008FBA80008B3
:100040002F15000839150008431500084D15000844
:1000500057150008611500086B1500087515000894
:100060007F15000889150008931500089D150008E4
:10007000A7150008B1150008BB150008C515000834
:10008000CF150008D9150008E3150008ED15000884
:10009000F7150008011600080B16000815160008D1
:1000A0001F16000829160008331600083D16000820
:1000B00047160008511600085B1600086516000870
:1000C0006F16000879160008831600088D160008C0
:1000D00097160008A1160008AB160008B516000810
:1000E000BF160008C9160008D3160008DD16000860
:1000F000E7160008F1160008FB16000805170008AF
:100100000F17000819170008231700082D170008FB
:1001100037170008411700084B170008551700084B
:100120005F17000869170008731700087D1700089B
:1001300087170008911700089B170008A5170008EB
:10014000AF170008B9170008C3170008CD1700083B
:10015000D7170008E1170008EB170008F51700088B
:10016000FF17000809180008131800081D180008D8
:1001700027180008311800083B1800084518000827
:100180004F180008DFF810D00EF062FE004800475C
:100190002D020008AFF30080306C002010B500F095
:1001A00095FC00F020FA00F09DF910BD704700F0BA
:1001B00067FD04F0D7FE05F00DFD00F0B0FD07F07F
:1001C000ACFEFFF7F3FFFFF7E9FF012001F071F844
:1001D000022001F053F828E03648007888B9364804
:1001E00001780078401C344A107003291ADD002081
:1001F00011460870012001F077F8022001F074F830
:1002000010E02D4801780078401C2B4A10700A2914
:1002100008DD002011460870012001F065F8022079
:1002200001F062F8322009F069FED5E700B587B029
:1002300001F013F904F096FE07F068FD0320002199
:1002400080221E4BCDE90132CDE903100220034686
:100250001B4A00901B4809F03CFB06AA1AA1022089
:1002600009F0A7FC07F041FE012007B000BD30B542
:1002700004460A464FF6FF71002A01DC002116E011
:10028000501EC2B2002310E0E05C4140002509E0AE
:1002900001F0010020B14AF2010080EA510100E0C2
:1002A00049086D1C072DF3D95B1C9342ECD988B229
:1002B00030BD00000D0000200C0000205C0200207A
:1002C00058040020AF0100085374617274000000EC
:1002D0007047704770477047704770477047704766
:1002E00008B500208DF800008DF8010002236A4651
:1002F0000021102003F054F908BD2DE9F84304460D
:100300000D4616461F46DDF8208002236A4604216A
:10031000102003F0DEF810B10120BDE8F8839DF84D
:1003200000009DF8011040EA0120208002236A4667
:100330000521102003F0CDF808B10120EDE79DF86C
:1003400000009DF8011040EA0120288002236A463F
:100350000621102003F0BDF808B10120DDE79DF86B
:1003600000009DF8011040EA0120308002236A4617
:100370000721102003F0ADF808B10120CDE79DF86A
:1003800000009DF8011040EA0120388002236A46EF
:100390000821102003F09DF808B10120BDE79DF869
:1003A00000009DF8011040EA0120A8F8000000209C
:1003B000B3E7000038B504460D46634804600020EA
:1003C000624908706248057009F049FE6149086099
:1003D0000020614908600120604908706A460021D8
:1003E0005F48006809F028F89DF8000038BD10B596
:1003F00004465A48007800B910BD09F030FE55494E
:100400000968401A642802D900205049087009F090
:1004100026FE504908604C4800684C49097844540D
:100420004A480078401C494908700846007801286D
:100430001DDD08460078801E43490968085C0D28C8
:1004400015D142480078401E3F490968085C0A28D7
:100450000DD100213D480078801E3B4A126811549E
:100460003F48006809F09AF800203C490870384875
:100470000078401E35490978884202DC0020334963
:10048000087000BFB8E73549097801B970473249AB
:100490000968884201D9014601E02F4909682E4ABE
:1004A000116000BFF2E700202C49087008F037FF08
:1004B0002B490860AFF2310000F0ADF8AFF2D10087
:1004C00002F047FB00BF32212648FFF773FF254BA0
:1004D000214825A10268042002F045F8642009F0B3
:1004E0000DFDF0E700B585B0032000214FF4007248
:1004F000214BCDE90132CDE903100A2003461F4A02
:100500000090AFF25D0009F0E4F905B000BD10B550
:10051000AFF2251002F01DFBFFF7E4FF10BD38B568
:100520000446E0B28DF80100C4F303208DF800000A
:10053000022269460D2004F038F8022269460E2096
:1005400004F033F838BD7047140000201800002074
:10055000190000201C0000202000002010000020B6
:10056000240000205C0C00204952522530356444A0
:1005700061746125730D0A005C040020580C002092
:100580001CB500202E4908802E4908802E4908807D
:100590002E4908802E4908808DF804008DF805004A
:1005A000022301AA0021102003F0F4FC00BF1E204A
:1005B00009F0A4FC2748007838B12548234B224A8B
:1005C000204900901E4800F05AF821480088FFF7A3
:1005D0005AFF214800680028E9D01D4800881E49BC
:1005E00009688847E3E700B585B0032000214FF490
:1005F00000721A4BCDE90132CDE903100920034600
:10060000174A0090AFF2870009F063F905B000BD0A
:1006100010490870704710490860704730B5039C56
:10062000074D2D880580074D2D880D80064D2D889E
:100630001580064D2D881D80054D2D88258030BDE7
:10064000280000202A0000202C0000202E0000207E
:10065000300000203200002034000020900C0020E8
:100660008C14002008B500208DF800008DF80100E2
:1006700002236A460021102003F08CFC08BD2DE9FE
:10068000F04104460D4616461F46DDF8188000204E
:1006900031490870487002230A460421102003F0F3
:1006A00039FC2D4800782C49497840EA0120208007
:1006B000022009F023FC002027490870487002231B
:1006C0000A460521102003F025FC23480078224922
:1006D000497840EA01202880022009F00FFC002020
:1006E0001D490870487002230A460621102003F0B5
:1006F00011FC194800781849497840EA01203080F7
:10070000022009F0FBFB0020134908704870022307
:100710000A460721102003F0FDFB0F4800780E4920
:10072000497840EA01203880022009F0E7FB0020E8
:1007300009490870487002230A460821102003F076
:10074000E9FB054800780449497840EA0120A8F807
:100750000000BDE8F08100003A00002070B588B0CC
:1007600005460E460422EDA1284606F015FA80B98A
:10077000291DECA002F004F928B9ECA130460EF0D6
:10078000E5FD01242CE1EBA130460EF0DFFD012454
:1007900026E1EDA1284606F04DFA78B903A804AB8E
:1007A00005AA06A9009007A8FFF738FFBDF80C209E
:1007B000E7A130460EF0CAFD012411E1E6A128466A
:1007C00006F038FA38B902F00FFAD8A130460EF028
:1007D000BDFD012404E1E3A1284606F02BFA38B957
:1007E00002F01BFAD1A130460EF0B0FD0124F7E073
:1007F000DFA1284606F01EFA00BB03A804AB05AA39
:1008000006A9009007A8FFF778FD20B1DAA13046CD
:100810000EF09CFD10E0BDF80C00BDF81010BDF806
:100820001420CDE900210290BDF81830BDF81C203D
:10083000D8A130460EF08AFD0124D1E00322DDA1CB
:10084000284606F0A9F9002877D10222DAA1E81C8F
:1008500006F0A2F940BB07AAD8A1681D0DF0E4FE7E
:100860000798B0F5806F19D20798C0B28DF81900BB
:100870000798C0F303208DF81800022206A90E2065
:1008800004F065F820B9A9A130460EF05FFD03E041
:10089000CBA130460EF05AFD01247AE0CCA13046BF
:1008A0000EF054FD012474E00222CDA1E81C06F0F4
:1008B00073F940BB07AAC1A1681D0DF0B5FE0798EA
:1008C000B0F5806F19D20798C0B28DF8190007985B
:1008D000C0F303208DF81800022206A90D2004F0B1
:1008E00036F820B991A130460EF030FD03E0B4A1F6
:1008F00030460EF02BFD01244BE0B5A130460EF042
:1009000025FD012445E00222B6A1E81C06F044F9C9
:10091000D0B907AAA9A1681D0DF086FE0798B0F509
:10092000806F0BD2079881B2012004F089F87FA173
:1009300030460EF00BFD01242BE02BE0A4A1304645
:100940000EF004FD012424E00222A7A1E81C06F019
:1009500023F9C8B907AA99A1681D0DF065FE07988B
:10096000B0F5806F0AD2079881B2002004F068F8D1
:100970006EA130460EF0EAFC01240AE094A1304654
:100980000EF0E4FC012404E02A4698A130460EF063
:10099000DDFC25E0052299A1284606F0FDF8D0B936
:1009A00007AA86A1681D0DF03FFE0798FF280CD806
:1009B0004FF6FF72079902EA0110FFF7B0FD5BA145
:1009C00030460EF0C3FC012404E081A130460EF055
:1009D000BDFC012404E02A4684A130460EF0B6FC9A
:1009E000204608B070BD00BF3221864801F062F990
:1009F00085498448FFF7B2FE0028F5D0824983A0DC
:100A000001F046F8F0E708B50020814908700120A0
:100A1000804908706A4600217F48006808F00CFD94
:100A200008BD70B505460E467A48007868B30024C4
:100A300028E0295D764802780078401C744B1870D5
:100A4000764881541846007801281ADD1846007847
:100A5000801E7249085C0D2813D118460078401E8C
:100A6000085C0A280DD1002118460078801E6B4AC8
:100A700011546948006808F091FD0020654908702C
:100A800002E0641CB442D4DB00BF70BD002008F05B
:100A900046FC6149086000206149087348730420DE
:100AA0008860AFF281000861084601F0E4FC00BFF5
:100AB000FFF7A9FF5B495948FFF750FE0028F7D020
:100AC000584A52A1042001F04EFDF1E700B585B06F
:100AD000032000214FF40072534BCDE90132CDE9E0
:100AE000031007200346514A0090AFF25F0008F060
:100AF000F0FE032000214FF400724D4BCDE901328E
:100B0000CDE90310082003464A4A0090AFF22910AD
:100B100008F0DFFEFFF7E4FB05B000BD4952533A91
:100B20000000000025730D0A000000004F4B0D0A65
:100B300000000000697220747820696E206C656482
:100B4000206D6F64650D0A004952434C520000004D
:100B500049522535640D0A0049524C45443A4F6EBE
:100B60000000000049524C45443A4F6666000000C0
:100B70004C4544434C5200004C6564436F6C6F72AB
:100B800053656E736F72457863657074696F6E0D2F
:100B90000A0000004325303564522530356447256E
:100BA00030356442253035644952253035640D0AAC
:100BB000000000004C454400523A0000256400004B
:100BC0004932435F4255535F4552524F520D0A001E
:100BD0006F7574206F662072616E67650D0A000084
:100BE000473A0000423A0000433A0000496E7661FD
:100BF0006C6964436D643A25730D0A004952545878
:100C00003A000000082500203A2500202573000046
:100C100041000020400000203C000020A4240020CF
:100C200090240020D6240020901400208C1C00204A
:100C3000901C00208C2400201CB500241DE0FE49DF
:100C400051F8240001210CF07DF9FC4830F8140023
:100C5000009001208DF8040000208DF8060001208E
:100C60008DF8070002208DF80500F54951F82400A1
:100C700069460BF00DFD601CC4B2022CDFDB1CBD0D
:100C800010B54FF4A06009F01BFFFFF7D5FF03F08C
:100C90008FFE03F0DCFB02F0A8FF02F0BEFA4FF477
:100CA000166001F0CBFD01F072FB4FF4E13000F073
:100CB00048FE03F083FD10BD10B5012140200CF06B
:100CC00052F9E048006840F00800DE490860084634
:100CD000006840F00400086000BFDA48001D0068AA
:100CE00000F001000028F8D0D64808300468D54844
:100CF000006820F00800D34908600846006820F02A
:100D000004000860002140200CF02DF9204610BDA1
:100D10001FB568460CF081F8019804B010BD70B59D
:100D2000FFF7F6FF04464FF47A70B4FBF0F528465F
:100D300009F0F4FD70BD1CB5012108460CF024F942
:100D400001217A200CF0FEF88020009002208DF81E
:100D500004008DF8050000208DF806008DF80700CE
:100D600001208DF807006946B7480BF091FC4FF65B
:100D7000FB70009002208DF804008DF80500002023
:100D80008DF806008DF8070001208DF807006946F0
:100D9000AE480BF07DFC0C220021AC480BF003FDAB
:100DA0000C220121A9480BF0FEFC0C220321A748CC
:100DB0000BF0F9FC0C220421A4480BF0F4FC0C22EB
:100DC0000521A2480BF0EFFC0C2206219F480BF0F6
:100DD000EAFC0C2207219D480BF0E5FC0C220821BF
:100DE0009A480BF0E0FC0C22092198480BF0DBFC40
:100DF0000C220A2195480BF0D6FC0C220B219348BB
:100E00000BF0D1FC0C22114690480BF0CCFC0C22CC
:100E10000D218E480BF0C7FC0C220E218B480BF0E5
:100E2000C2FC0C220F2189480BF0BDFC4FF6FB7071
:100E30000090694686480BF02BFC0C220021844868
:100E40000BF0B1FC0C22012181480BF0ACFC0C2210
:100E500003217F480BF0A7FC0C2204217C480BF0F7
:100E6000A2FC0C2205217A480BF09DFC0C220621E5
:100E700077480BF098FC0C22072175480BF093FC87
:100E80000C22082172480BF08EFC0C2209217048BC
:100E90000BF089FC0C220A216D480BF084FC0C221B
:100EA0000B216B480BF07FFC0C22114668480BF0BD
:100EB0007AFC0C220D2166480BF075FC0C220E21E9
:100EC00063480BF070FC0C220F2161480BF06BFCA7
:100ED0004FF23F00009069465E480BF0D9FB0C22B0
:100EE00000215C480BF05FFC0C22012159480BF0FB
:100EF0005AFC0C22022157480BF055FC0C2203210E
:100F000054480BF050FC0C22042152480BF04BFCCF
:100F10000C2205214F480BF046FC0C2211464D488F
:100F20000BF041FC0C220D214A480BF03CFC0C223A
:100F30000E2148480BF037FC0C220F2145480BF0DE
:100F400032FC3F200090694643480BF0A1FB0C2285
:100F5000002141480BF027FC0C2201213E480BF0F8
:100F600022FC0C2202213C480BF01DFC0C22032128
:100F700039480BF018FC0C22042137480BF013FC05
:100F80000C22052134480BF00EFC4020009001207B
:100F90008DF8040002208DF8050000208DF8060071
:100FA0008DF8070069462B480BF072FB4021294859
:100FB0000BF0ECFB41F210004FF02041086045F2CD
:100FC0001000086040F204404860244908604FF077
:100FD0002040006840F001004FF0204108601CBD37
:100FE00000B599B0012108460BF0CEFF0121782011
:100FF0000BF0A8FF4FF63370019002208DF8080027
:1010000003208DF8090000208DF80A008DF80B00F0
:1010100001A90E480BF03CFB0C2200210B480BF001
:10102000C2FB0C22012109480BF0BDFB0C2204215C
:1010300006480BF0B8FB13E078FC000874FC0008CD
:10104000440000200008065000040240000C02404A
:10105000001002400014024000180240040100A0E9
:101060000C220521EC480BF09EFB0C220821EA48DB
:101070000BF099FB0C220921E7480BF094FB0C22A2
:101080000A21E5480BF08FFB0C220B21E2480BF004
:101090008AFB0C221146E0480BF085FB0C220D2147
:1010A000DD480BF080FB0C220E21DB480BF07BFBB4
:1010B0000C220F21D8480BF076FB4FF6FB70019005
:1010C00001A9D6480BF0E4FA0C220021D3480BF01A
:1010D0006AFB0C220121D1480BF065FB0C22032195
:1010E000CE480BF060FB0C220421CC480BF05BFBDC
:1010F0000C220521C9480BF056FB0C220621C748DB
:101100000BF051FB0C220721C4480BF04CFB0C22C6
:101110000821C2480BF047FB0C220921BF480BF005
:1011200042FB0C220A21BD480BF03DFB0C220B2197
:10113000BA480BF038FB0C221146B8480BF033FBD1
:101140000C220D21B5480BF02EFB0C220E21B348CA
:101150000BF029FB0C220F21B0480BF024FB4FF2BF
:101160003F00019001A9AE480BF092FA0C22002139
:10117000AB480BF018FB0C220121A9480BF013FB24
:101180000C220221A6480BF00EFB0C220321A448DE
:101190000BF009FB0C220421A1480BF004FB0C22EC
:1011A00005219F480BF0FFFA0C2211469C480BF0DA
:1011B000FAFA0C220D219A480BF0F5FA0C220E21B6
:1011C00097480BF0F0FA0C220F2195480BF0EBFA40
:1011D00040F23F20019001A992480BF059FA0C22ED
:1011E000002190480BF0DFFA0C2201218D480BF012
:1011F000DAFA0C2202218B480BF0D5FA0C220321DB
:1012000088480BF0D0FA0C22042186480BF0CBFA68
:101210000C22052183480BF0C6FA0C2209218148D3
:101220000BF0C1FA002003900490042005900120E7
:101230000690002007900890099003A81790189036
:1012400002200A9000200B900C9010200D9000209E
:101250000F904FF4804015908010139000200E9056
:10126000109011901290149016900AA80AF0B9FEEE
:10127000012102200AF061FF19B000BD10B500285D
:1012800001DD02280BDD002106E0674A1288674B6A
:101290001B681A834A1C51B20229F6DB10BD421E9C
:1012A000614B33F81230614C54F82220138300BF95
:1012B000F4E710B5002801DD02280BDD002106E06F
:1012C000594A1288594B1B685A834A1C51B2022949
:1012D000F6DB10BD421E544B33F81230534C54F819
:1012E0002220538300BFF4E770B50446002C01DDD3
:1012F000022C22DD00251EE04C4951F825000BF0A0
:101300003FFA0646484830F815004640464A32F84B
:10131000152002EA0601454A52F825000BF034FA7E
:10132000414A32F8152022EA0601404A52F82500C7
:101330000BF02CFA70BD022DDEDB611E3B4A52F829
:1013400021000BF01DFA0646601E374931F81000E7
:101350004640621E0B4633F8122002EA0601621E66
:10136000324B53F822000BF00FFA621E2E4B33F86B
:10137000122022EA0601621E2C4B53F822000BF0C9
:1013800005FA00BFD6E71CB500241AE0284951F839
:10139000240001210BF0D6FD264830F814000090FF
:1013A00000208DF8040001208DF8070002208DF840
:1013B0000500214951F8240069460BF069F9601CC9
:1013C000C4B2012CE2DB1CBD10B50446002C01DCCC
:1013D000002010BD174A32F81410174A52F82400A2
:1013E0000BF0B8F9F5E710B51448006840F08070CC
:1013F000124908600020124948600846006840F021
:1014000001000860FFF784FC0446204603F01BFE41
:1014100010BD0B4840687047000C024000100240AD
:10142000001402400018024074FC00084400002030
:1014300084FC000880FC00084C000020FCED00E06B
:10144000001000E0704710B50446512C04D204F19E
:101450001001C8B203F00EFF10BD10B503F0B6FEC8
:1014600010BD10B50446512C04D204F11001C8B2CD
:1014700003F0A4FF10BD70B504460D460026512CA4
:1014800010D200BF00BF03F0A5FE064600BF00BF9C
:10149000F14840F8245000BF00BF304603F09EFEE4
:1014A00000BF00BF70BD70B504460D460026512C2C
:1014B00013D200BF00BF03F08DFE064600BF00BF81
:1014C00004F11001C8B2294604F06EF800BF00BF55
:1014D000304603F083FE00BF00BF70BD704710B5FB
:1014E000002404E0DD492046FFF7C5FF641C512CB1
:1014F000F8D310BD70B50446002600BF00BF03F04E
:1015000069FE064600BF00BF06F01CFC00BF00BF1E
:10151000304603F063FE00BF00BF512C04D2CE481A
:1015200050F8245005B1A84706F01AFC70BD10B55C
:101530000020FFF7DFFF10BD10B50120FFF7DAFF35
:1015400010BD10B50220FFF7D5FF10BD10B5032068
:10155000FFF7D0FF10BD10B50420FFF7CBFF10BD83
:1015600010B50520FFF7C6FF10BD10B50620FFF728
:10157000C1FF10BD10B50720FFF7BCFF10BD10B5AF
:101580000820FFF7B7FF10BD10B50920FFF7B2FF25
:1015900010BD10B50A20FFF7ADFF10BD10B50B2030
:1015A000FFF7A8FF10BD10B50C20FFF7A3FF10BD7B
:1015B00010B50D20FFF79EFF10BD10B50E20FFF7F0
:1015C00099FF10BD10B50F20FFF794FF10BD10B5A7
:1015D0001020FFF78FFF10BD10B51120FFF78AFF15
:1015E00010BD10B51220FFF785FF10BD10B51320F8
:1015F000FFF780FF10BD10B51420FFF77BFF10BD73
:1016000010B51520FFF776FF10BD10B51620FFF7B7
:1016100071FF10BD10B51720FFF76CFF10BD10B59E
:101620001820FFF767FF10BD10B51920FFF762FF04
:1016300010BD10B51A20FFF75DFF10BD10B51B20BF
:10164000FFF758FF10BD10B51C20FFF753FF10BD6A
:1016500010B51D20FFF74EFF10BD10B51E20FFF77F
:1016600049FF10BD10B51F20FFF744FF10BD10B596
:101670002020FFF73FFF10BD10B52120FFF73AFFF4
:1016800010BD10B52220FFF735FF10BD10B5232087
:10169000FFF730FF10BD10B52420FFF72BFF10BD62
:1016A00010B52520FFF726FF10BD10B52620FFF747
:1016B00021FF10BD10B52720FFF71CFF10BD10B58E
:1016C0002820FFF717FF10BD10B52920FFF712FFE4
:1016D00010BD10B52A20FFF70DFF10BD10B52B204F
:1016E000FFF708FF10BD10B52C20FFF703FF10BD5A
:1016F00010B52D20FFF7FEFE10BD10B52E20FFF710
:10170000F9FE10BD10B52F20FFF7F4FE10BD10B587
:101710003020FFF7EFFE10BD10B53120FFF7EAFED5
:1017200010BD10B53220FFF7E5FE10BD10B5332017
:10173000FFF7E0FE10BD10B53420FFF7DBFE10BD53
:1017400010B53520FFF7D6FE10BD10B53620FFF7D7
:10175000D1FE10BD10B53720FFF7CCFE10BD10B57F
:101760003820FFF7C7FE10BD10B53920FFF7C2FEC5
:1017700010BD10B53A20FFF7BDFE10BD10B53B20DF
:10178000FFF7B8FE10BD10B53C20FFF7B3FE10BD4B
:1017900010B53D20FFF7AEFE10BD10B53E20FFF79F
:1017A000A9FE10BD10B53F20FFF7A4FE10BD10B577
:1017B0004020FFF79FFE10BD10B54120FFF79AFEB5
:1017C00010BD10B54220FFF795FE10BD10B54320A7
:1017D000FFF790FE10BD10B54420FFF78BFE10BD43
:1017E00010B54520FFF786FE10BD10B54620FFF767
:1017F00081FE10BD10B54720FFF77CFE10BD10B56F
:101800004820FFF777FE10BD10B54920FFF772FEA4
:1018100010BD10B54A20FFF76DFE10BD10B54B206E
:10182000FFF768FE10BD10B54C20FFF763FE10BD3A
:1018300010B54D20FFF75EFE10BD10B54E20FFF72E
:1018400059FE10BD10B54F20FFF754FE10BD10B566
:101850005020FFF74FFE10BD6C250020DD1400085E
:1018600008B5F84800880090F6480C30008800F071
:101870002000002847D00098C0F34010002842D034
:10188000F0480CF0C8FDF049087040F22551ED48D1
:101890000CF0BAFEEC4800780A2801D1012000E0E3
:1018A0000020EA490968491EE94A1268515C0D297D
:1018B00001D1012100E00021084080B10021E3486E
:1018C0000068401EE24A12681154002240F225517D
:1018D000DC480CF027FEDF4800F07FFA13E0DA481E
:1018E0000178DA4802680068401CD84B1860D84874
:1018F0000068815418460068D7490968884202D3B5
:10190000002019460860CF480C30008800F08000A5
:10191000B0B10098C0F3C01068B1002240F2277146
:10192000C8480CF0FFFD40F22771C6480CF06CFE71
:10193000CA4800F052FA40F22771C2480CF064FE27
:1019400008BD10B588B00446C5A20021C34800F008
:101950001BFAC7A20021BF4800F016FAC8A2012155
:10196000CA4800F011FA02940020ADF80C00ADF85E
:101970000E00ADF81000ADF814000C20ADF8120008
:101980000020ADF80000ADF802004FF40070ADF893
:1019900004000020ADF80600012104200BF0D2FA6B
:1019A000012188040BF001FB4FF4806006900220B7
:1019B0008DF81D008DF81C0000208DF81E00012000
:1019C0008DF81F0006A9B2480AF062FE07220A211C
:1019D000AF480AF0E8FE4FF40060069002208DF850
:1019E0001C0006A9AA480AF053FE07220B21A848AA
:1019F0000AF0D9FE02A993480CF056FC69469148BA
:101A00000CF0C4FC01218F480CF0D6FCA149272022
:101A1000FFF731FD2720FFF724FD08B010BD10B5FA
:101A20000446214687480CF0F2FC012240F227715F
:101A300084480CF077FD0021884800F0B8F90022B6
:101A400040F227717F480CF06DFD10BD70B5044663
:101A500000218E4800F0ABF90546012D00D070BD85
:101A60000EE020780A2807D10D20FFF7D8FF0A20C2
:101A7000FFF7D5FF641C03E014F8010BFFF7CFFF5D
:101A800020780028EDD1814800F0A7F900BFE6E7F3
:101A90000FB400B597B019A80190512102A8019B7D
:101AA000189A0DF067FC0020019002A8FFF7CEFF06
:101AB00017B05DF814FB10B5202162480CF064FDEE
:101AC000012240F225515F480CF02CFD00216148B5
:101AD00000F06DF9002240F225515A480CF022FD29
:101AE00059480478204610BD10B50021674800F021
:101AF0005EF9FFF7E0FF0446644800F06EF9204607
:101B000010BD70B505460C46012240F225514D48E6
:101B10000CF008FD29464F4800F049F920700022DA
:101B200040F2255147480CF0FDFC0CB9002070BD77
:101B3000454806783046FAE770B504460021534818
:101B400000F035F921460A20FFF7DBFF05464F4834
:101B500000F043F90CB9002070BD2846FCE72DE9E0
:101B6000F04106460F46002400203070002147480F
:101B700000F01DF98046B8F1010F01D0BDE8F081F9
:101B800038E0FFF798FF05460D2D01D00A2D08D14A
:101B90000A20FFF744FF0D20FFF741FF00203055DA
:101BA00029E0082D0ED1002C0CDD0820FFF737FFAF
:101BB0002020FFF734FF0820FFF731FF601EC4B27A
:101BC000002030557F2D08D1002C06DD7F20FFF747
:101BD00026FF601EC4B200203055284603F062FF85
:101BE00040B12846FFF71BFF3555601CC4B2BC420C
:101BF00000DBFCB2C5E700BF244800F0EEF800BFF0
:101C0000BCE7F8B504460F460020207000211F48AD
:101C100000F0CDF800909DF80000012801D00020D0
:101C2000F8BD00263DE069466420FFF76AFF0546DF
:101C30009DF8000080BB00202070144800F0CDF813
:101C40000020EDE7004800405C0000206800002014
:101C5000600000205400002064000020500000209C
:101C600053657269616C2054782057616974000073
:101C700053657269616C2052782057616974000065
:101C800053657269616C204C6F636B0058000020D3
:101C90000008024061180008FFE704F8015B701CAF
:101CA00086B2BE42BFDB00202070294800F095F8C4
:101CB0000120B5E770B504460D460021244800F028
:101CC00076F8012240F2255122480CF02BFC2248E4
:101CD0000460224805600020214908600021214855
:101CE00000F065F81A4800F078F8304670BD10B57D
:101CF00004460021164800F05AF82046FFF78FFEF0
:101D0000134800F06AF810BD2DE9F04104460E4674
:101D100000210F4800F04BF80746012F01D0BDE825
:101D2000F08100250CE020780A2803D1FFF777FE28
:101D3000641C03E014F8010BFFF771FE681C85B208
:101D4000B542F0DB024800F048F800BFE7E70000CA
:101D5000580000200048004060000020640000207F
:101D600068000020540000200548804705480047CF
:101D7000FEE7FEE7FEE7FEE7FEE7FEE7FEE7000020
:101D8000D521000885010008F8B505460E4617461E
:101D9000304607F0C4FA04460CB90020F8BD2C60A8
:101DA0006A463946204605F056FC0120F6E7F8B5AC
:101DB00004460D464FF47A7068434FF47A71B0FBD5
:101DC000F1F66A463146206807F036FB9DF80000C0
:101DD00008B10020F8BD0120FCE770B5044620687A
:101DE00007F0DCFB05460DB1002070BD0120FCE7CB
:101DF00070B5044642F21070844200D904464FF494
:101E00007A70B4FBF0F0C6B24FF47A70B4FBF0F124
:101E100000FB11452B4632460021084608F0A0F889
:101E200070BD000000B587B0012108460BF08AF8AC
:101E30001020009001208DF8040003208DF805008B
:101E400000208DF8060001208DF807006946AE4895
:101E50000AF01EFC1021AC480AF096FC0121080390
:101E60000BF0B4F8012108460BF06CF8402000900C
:101E700002208DF8040003208DF8050000208DF865
:101E800006008DF8070069469F480AF001FC802093
:101E9000009002208DF8040003208DF8050000203A
:101EA0008DF806008DF80700694697480AF0F0FBA8
:101EB00020200090694694480AF0EAFB0522072199
:101EC00091480AF070FC052206218F480AF06BFC4D
:101ED000052211468C480AF066FC10218A480AF057
:101EE00053FC0020ADF808004FF48270ADF80A00F2
:101EF0000020ADF80C000220ADF80E000120ADF876
:101F000010004002ADF812003020ADF8140000209F
:101F1000ADF816000720ADF8180002A97B480BF0B9
:101F200075F9012179480BF054FA07B000BD10B5DE
:101F3000044600BF022175480BF0DBFA0028F9D0F7
:101F4000214672480BF09EFA00BF01216F480BF04A
:101F5000D0FA0028F9D06D480BF091FAC0B210BD4C
:101F600010B50024102168480AF010FC9020FFF7FB
:101F7000DEFF00BF04E00020FFF7D9FF601CC4B201
:101F8000022CF8DB0020FFF7D2FFFF20FFF7CFFF86
:101F90004FF47F4101EA00205D49098808435C490C
:101FA0000880FF20FFF7C3FF5949098808435849B3
:101FB0000880102154480AF0E7FB5548008810BDFE
:101FC00010B50446102150480AF0E0FB012C03D163
:101FD0000620FFF7ACFF03E014B90420FFF7A7FFCA
:101FE000102149480AF0D0FB10BD10B5044610215D
:101FF00045480AF0CBFB0320FFF799FF00210814A6
:10200000FFF795FF00210812FFF791FFE0B2FFF7FD
:102010008EFF10213C480AF0B7FBFF20FFF787FF37
:1020200010BD2DE9F04104460D46164610213648F4
:102030000AF0ACFB0B20FFF77AFF00210814FFF732
:1020400076FF00210812FFF772FFE0B2FFF76FFF83
:10205000002706E0FF20FFF76AFF05F8010B781C58
:10206000C7B2B742F6DB102127480AF08DFBBDE866
:10207000F08170B505462C0B2403102122480AF08C
:1020800085FB2020FFF753FF00210814FFF74FFFC7
:1020900000210812FFF74BFFE0B2FFF748FF1021C5
:1020A00019480AF071FB70BD2DE9F04104460D4658
:1020B0001646102114480AF069FB0220FFF737FF8B
:1020C000C4F30740FFF733FFC4F30720FFF72FFFE8
:1020D000C4EB0421C8B2FFF72AFF002706E0FF2067
:1020E000FFF725FF05F8010B781CC7B2B742F6DBF6
:1020F000102105480AF04AFBBDE8F08110B5FFF752
:1021000091FEFFF72DFF10BD00000240003001409E
:102110006C0000200CB50020019000906B48006816
:1021200040F480306949086000BF6848006800F4E6
:10213000003000900198401C0190009818B9019857
:10214000B0F5A06FF1D16148006800F4003010B123
:102150000120009001E0002000900098012838D173
:102160005A48083000685949083108600846006834
:1021700040F4004008600846006840F4A050086041
:102180005348091F0860081F006840F08070091F4D
:10219000086000BF4D48006800F000700028F9D0CA
:1021A00040F203704B49086048480830006820F04E
:1021B00003004649083108600846006840F0020004
:1021C000086000BF41480830006800F00C00082893
:1021D000F8D10CBD10B53D48006840F001003B4906
:1021E00008600020394908310860384800683A49D9
:1021F0000840364908603948091D0860081F006812
:1022000020F48020091F0860002030490C3108604C
:10221000FFF780FF4FF000603149086010BD70B5D6
:1022200000200022022300240221284D08352D68B9
:1022300005F00C0020B1042806D0082834D107E0AE
:10224000284D294E356033E0284D274E35602FE06C
:102250001E4D2D1D2D68C5F380541C4D2D1D2D6860
:1022600005F03F0154B1214DB5FBF1F5174E361D78
:102270003668C6F3881605FB06F209E0194DB5FB72
:10228000F1F5124E361D3668C6F3881605FB06F2C8
:102290000E4D2D1D2D68C5F301456D1C6B00B2FB65
:1022A000F3F5114E356003E00E4D0F4E356000BF63
:1022B00000BF064D08352D68C5F303150C4E705D43
:1022C000094D2D68C540084E356070BD003802408C
:1022D000083C4005003C0240FFFFF6FE10300024A1
:1022E00008ED00E00024F4007000002000127A00E5
:1022F0007400002010B5C44800680078D0B10024F4
:102300000AE0C14800680178C0480155BE4800682D
:10231000401CBD490860641C082C04DABA480068F7
:1023200000780028EDD1B9490B398C72B84808F013
:10233000FBFF08E000220121B54809F005FAB54885
:10234000006807F02BF910BD10B5B3480468B34A14
:102350000021AF4809F0DDF815E0B049A068096830
:1023600088420FD1607BAD49497A88420AD1207BEF
:10237000AA49097A884205D1A848817A0B30226996
:10238000904702E06468002CE7D100BF10BD1CB587
:10239000012006F0C4FF9F490860012108460AF0A9
:1023A000D1FD09220B219E480AF0FDF909220C21DA
:1023B0009B480AF0F8F94FF4C050009002208DF8C5
:1023C00004008DF8050000208DF8060001208DF82E
:1023D0000700694692480AF05BF901214FF0C0609E
:1023E0000AF0E3FD8A4808F00DFE00208D4988714F
:1023F000C871087248728872C8728870C8700520E7
:1024000008710720487102200880814808F013FEF7
:10241000002085498872C872012008730020088056
:1024200048808880C880088101204873084608F0E9
:102430008CFE40F2213075490B390860012048605C
:1024400000204872087201208872AFF20311142034
:10245000FFF711F81420FFF704F8012202216C485D
:1024600009F072F9AFF273111320FFF704F813208B
:10247000FEF7F7FF1CBD70B5054600BF00BF02F0B8
:10248000A9FE064600BF00BFEDB1634804680CB961
:1024900005600FE00DE0606850B965602C6000BF1A
:1024A00000BF304602F09AFE00BF00BF002070BDA2
:1024B0006468F0E700BF00BF304602F08FFE00BF47
:1024C00000BF0020F3E700BF00BF304602F086FEE9
:1024D00000BF00BF0120EAE70FB470B500BF00BF26
:1024E00002F078FE054600BF00BF4B4800688068D8
:1024F0000699884212D148480068406846490860F9
:1025000000200968086000BF00BF284602F066FE90
:1025100000BF00BF002070BC5DF814FB3E4800689F
:1025200044681FE0A0680699884210D1D4E90010E1
:102530004860606810B1D4E90001086000BF00BFC6
:10254000284602F04BFE00BF00BF0020E3E76468AE
:1025500044B900BF00BF284602F040FE00BF00BFE4
:102560000120D8E7DEE70FB47CB5054601AA0021BB
:102570002848006806F060FF08A8009050212B480A
:10258000009B079A0CF0F6FE0020009027481E4999
:1025900008601E480B38056001201C490B39486053
:1025A000002048720872184800680078F8B10024CA
:1025B0000AE015480068017814480155124800687F
:1025C000401C11490860641C082C04DA0E4800689D
:1025D00000780028EDD10D490B398C720C4808F0B9
:1025E000A3FE012211460A4809F0AEF808E00022D5
:1025F0000121074809F0A8F80648006806F0CEFF58
:102600007CBC5DF814FB00008C000020D726002065
:10261000006400408800002084000020E0260020A4
:1026200000000240B0260020BC260020F426002036
:1026300000B58DB0012102200AF0B7FC0121084647
:102640000AF080FC02208DF8300003208DF8310064
:1026500000208DF832008DF8330040200B900BA93C
:10266000F7480AF015F802220621F5480AF09BF80F
:1026700080200B900BA9F2480AF00AF802220721E9
:10268000EF480AF090F8EF48006849F27041B0FB5B
:10269000F1F00121C1EB5000EB49088008460088A9
:1026A000801E40000321B0FBF1F0E8490880E648B5
:1026B000008809900020ADF82000ADF82800ADF8A2
:1026C000220008A9E2480AF0FCFF7020ADF80000E3
:1026D0000120ADF80200DD48008802900020ADF82E
:1026E0000C000820ADF80E004001ADF810000020ED
:1026F000ADF812006946D6480BF0B1F80020ADF8ED
:1027000014000220ADF816000120ADF818000020DA
:10271000ADF81A000120ADF81C0005A9CC480BF05B
:10272000A7FB5021CA480BF0B8FC0521C8480BF0A4
:102730002AFD0121C6480BF03EFC0121C4480BF0E4
:1027400049F80DB000BD1CB5C24800880190C148D1
:10275000808900900098C0F34010B8B10198C0F390
:10276000401098B1BB480BF056FEBB490870BB48FF
:10277000006820B108460078B84909688847B84819
:102780000068807A10B1B648FFF727FB0098C0F3C5
:10279000C01008B30198C0F3C010E8B1B148006898
:1027A000807A48B1AF48FFF718FB002240F227714A
:1027B000A8480BF0B7FE1CE0AB48AC490978405C78
:1027C00058B1AA4802780078401CA84B1870A64857
:1027D000815CA0480BF01BFE0BE0002240F2277149
:1027E0009C480BF09FFE012240F2266199480BF0B5
:1027F00099FE0098C0F38010F8B10198C0F38010E2
:10280000D8B1402193480BF0BFFE9948FFF7E5FA95
:10281000002240F226618F480BF084FE8A4800882F
:10282000401E00EB40000321B0FBF1F08749088017
:102830000846018886480BF034F91CBD10B588B0F5
:1028400004468CA200218748FFF79EFA8EA2012140
:102850008748FFF799FA91A200218148FFF794FA7F
:1028600093A201219648FFF78FFA02940020ADF859
:102870000C00ADF80E00ADF81000ADF814000C20FF
:10288000ADF812000020ADF80000ADF802004FF4E2
:102890000070ADF804000020ADF8060001210846E4
:1028A0000AF050FB012110200AF090FB4FF4007059
:1028B000069002208DF81C0000208DF81E000220DA
:1028C0008DF81D0000208DF81F0006A95C4809F056
:1028D000DFFE072209215A4809F065FF4FF48060A6
:1028E000069002208DF81C0000208DF81F0006A91C
:1028F000534809F0CDFE07220A21514809F053FF41
:1029000002A954480BF0D0FC694652480BF03EFD3A
:10291000012150480BF050FDAFF2D5112520FEF7F4
:10292000AAFD2520FEF79DFD012240F225514948D0
:102930000BF0F8FDFFF77CFE00206249087008B03C
:1029400010BD70B505460C4629464548FFF72FFADD
:1029500020702078012803D13F480678304670BDAA
:102960000020FCE708B500215548FFF720FA69462A
:102970000020FFF7E6FF5248FFF72FFA204608BD78
:102980000FB408B54F48007820B14E48007801B028
:102990005DF814FB00213648FFF709FA03A8009000
:1029A00051213148009B029A0CF0E4FC4649087022
:1029B000002000902D49087023480088401E4000E8
:1029C0000321B0FBF1F02149088008460188204826
:1029D0000BF067F81E480AF0C1FE18B100211C4830
:1029E0000AF0B8FE012240F227711A480BF09AFD56
:1029F00034480078CBE710B50446214615480BF063
:102A000006FD012240F2277112480BF08BFD0A21CE
:102A10001448FFF7CCF9002240F227710D480BF063
:102A200081FD10BD10B5044600212548FFF7BFF910
:102A30002046FFF7E0FF2248FFF7CFF910BD000066
:102A40000000024070000020AA000020AC0000201E
:102A50000004004000100140A0000020A40000205D
:102A6000980000209000002044270020A9000020AA
:102A70009400002053657269616C203120547820E5
:102A8000576169740000000053657269616C203100
:102A9000205478204C6F636B00000000536572690E
:102AA000616C203120527820576169740000000069
:102AB00053657269616C2031204C6F636B000000BC
:102AC0009C000020AE000020A800002070B5044645
:102AD00000216148FFF76BF90546012D00D070BD5C
:102AE00000205E4908705E4908700BE05B48007882
:102AF000205C5C49594A1278885458480078401C38
:102B00005649087020780028F0D1012240F2277140
:102B100055480BF007FD00BFE1E72DE9F041044601
:102B20000E4600214C48FFF742F90746012F01D01D
:102B3000BDE8F081002505E014F8010BFFF75BFF0D
:102B4000681CC5B2B542F7DB4348FFF746F900BF42
:102B5000EEE74649086070472DE9F04105460F460B
:102B600000214348FFF723F9012240F22551414853
:102B70000BF0D8FC002436E000213F48FFF717F99E
:102B80003E4802782046611CCCB22A5429E000213C
:102B90003948FFF70CF90646384802782046611C90
:102BA000CCB22A54012E1AD1A01E285C0D2811D1B6
:102BB000601E285C0A280DD100202855002240F212
:102BC00025512C480BF0AEFC2948FFF706F92046AA
:102BD000BDE8F081781EA04203D1002402E0002469
:102BE00000E0D4E700BFC7E71CB501202449087006
:102BF0008DF8040003208DF8050000208DF80600F4
:102C00008DF807008020009069461E4809F040FDBD
:102C100080211C4809F0B8FD1CBD1CB58021194855
:102C200009F0B4FD02208DF8040003208DF80500A2
:102C300000208DF806008DF807008020009069467E
:102C4000104809F025FD022207210E4809F0ABFDCE
:102C500000200B4908701CBD94000020A800002033
:102C6000A90000204427002000100140A4000020FB
:102C70009C000020004C004098000020A000002094
:102C8000AE0000200000024000B587B001214805D9
:102C90000AF08BF9012102200AF054F901210220E7
:102CA0000AF050F9012188030AF090F90121480542
:102CB0000AF0E3F900214FF400100AF0DEF9402099
:102CC000019002208DF808008DF8090001208DF890
:102CD0000A0000208DF80B0001A9F84809F0D8FC83
:102CE0008020019001A9F54809F0D2FC04220621B8
:102CF000F24809F058FD04220721F04809F053FD7D
:102D0000EF4809F085FD0020ADF810004BF6FF708C
:102D1000ADF81200A020ADF814004FF48060ADF8BB
:102D20001600E848006803904FF48040ADF81800A2
:102D300003A9E34809F095FD01221102E04809F0DA
:102D400007FF0121DE4809F008FE07B000BD10B5FD
:102D50001421DB4809F0F1FE00F47F40DA490880D5
:102D60000846008830B1D64814300088C0B2D44933
:102D7000143108800120D449088000224102D04843
:102D800009F0E6FED1480068807A18B1CF480068A3
:102D900006F004FCCE480068807A18B1CC48006880
:102DA00006F0FCFBFFF770FF10BD10B50446C648E7
:102DB000048000224FF4C061C14809F0C9FEC34835
:102DC0000068807A18B1C148006806F0E7FBC04887
:102DD0000068807A18B1BE48006806F0DFFBFFF794
:102DE00053FF10BD10B5BB4890F9000009286FD003
:102DF00008DC09286DD2DFE800F06C0E6DD56C6C34
:102E00006C46B2000A2878D00B2877D0102876D0EC
:102E100014285ED10DE1B0480078012815D1A848EA
:102E200009F0B4FEAD4988420BD1AD4800784006A8
:102E3000010E0022A24809F0B4FD0220A549087045
:102E400020E00120FFF7B1FF1CE0A3480078022832
:102E500015D19B4809F09AFEA04988420BD1A048A1
:102E600000784006010E0122954809F09AFD0220E3
:102E70009849087006E00120FFF797FF02E0012063
:102E8000FFF793FFC7E100209649086004E09548EA
:102E90000068401C93490860894809F077FE8F4913
:102EA0008842F4D1864809F071FE8C4988420BD1E2
:102EB0008B4800784006010E0122814809F071FD1F
:102EC00008208449087002E00120FFF76EFFA2E1AC
:102ED00032E09FE180480078012815D1784809F058
:102EE00055FE814988420BD180480178744809F029
:102EF000DCFD0920774908701DE0CCE006E141E1E6
:102F00000120FFF752FF16E073480078022812D123
:102F10006B4809F03BFE7149491C884208D10122E7
:102F20009102674809F014FE03206A49087002E024
:102F30000120FFF73AFF6EE1614809F027FE6A4978
:102F4000891C884207D101215D4809F012FD072044
:102F50006049087002E00120FFF727FF5BE10020D5
:102F60006049086004E05F480068401C5D490860F3
:102F7000534809F00BFE5949491C08408842F2D1D8
:102F800058480068B0F5805F08D2012291024C4891
:102F900009F0DEFD03204F49087002E00120FFF731
:102FA00004FF38E100204F49086004E04D48006804
:102FB000401C4C490860424809F0E8FD47493F3150
:102FC00008408842F2D13E4809F0E0FD43493F31D4
:102FD000884204D046493A4809F008FE28B33848E8
:102FE00009F065FD434991F90040611C49B2414A2D
:102FF0001170414909680855104690F900003F4991
:1030000091F90010884213DB01212D4809F0BDFC25
:1030100000224FF480612A4809F09AFD14202D49BE
:10302000087000202849088002E00120FFF7BDFE5B
:10303000F1E000202B49086004E02A480068401CA9
:10304000284908601E4809F0A1FD24493F31084085
:103050008842F2D11A4809F099FD20493F3188424F
:1030600015D10022C111164809F072FD18480068F8
:1030700006F094FA22480078401C2149087008465E
:103080000078022806D100200F49088002E00120C4
:10309000FFF78BFEBFE00A4809F078FD0F49884230
:1030A00030D10F4800784006010E0022044809F094
:1030B00078FC0B200749087027E00000000402405C
:1030C00000540040C4000020CA000020CC000020B2
:1030D000D0000020B0000020B1000020010003005B
:1030E000B2000020DC00002082000700C2000020A7
:1030F00040000006B9000020B4000020B800002005
:10310000C80000200120FFF750FE84E0FE48007850
:10311000012813D1FD4809F039FDFD49884230D11D
:10312000FC480178F94809F0C0FC1020FA49087001
:1031300001228101F54809F00BFD22E0F2480078F8
:1031400002281BD1F14809F021FDF149884218D12C
:1031500001229102ED4809F0FBFCF0480068F04ABA
:103160001278815CE94809F0A0FCED480078401C29
:10317000EB4908701020E849087002E00120FFF7D1
:1031800014FE48E0E14809F001FDE6490860084600
:103190000068DF49891E884220D1E1480078E24971
:1031A0000978884210DADD480068DD4A1278815CCF
:1031B000D64809F07AFCDA480078401CD8490870F3
:1031C0001020D549087024E000224FF48061CF48D8
:1031D00009F0BEFC1020D04908701AE0D148006800
:1031E000CB49891C884211D10121C84809F0CDFB87
:1031F00000224FF4C061C54809F0AAFCCB48006822
:1032000006F0CCF90020CA49088002E00120FFF74F
:10321000CCFD00E000BF00BF10BD00B587B00020AE
:1032200006F07DF8C1490860002006F078F8C14931
:103230000860012006F073F8BF49086001214805C5
:1032400009F0B3FE0121022009F07CFE01210220D9
:1032500009F078FE0121880309F0B8FE0121480534
:1032600009F00BFF00214FF4001009F006FF402089
:10327000019002208DF808008DF8090001208DF8DA
:103280000A0000208DF80B0001A9AC4809F000FAF3
:103290008020019001A9A94809F0FAF90422062129
:1032A000A64809F080FA04220721A44809F07BFA15
:1032B000964809F0ADFA0020ADF810004BF6FF700B
:1032C000ADF81200A020ADF814004FF48060ADF806
:1032D00016009B48006803904FF48040ADF818003A
:1032E00003A98A4809F0BDFA01221102874809F0B2
:1032F0002FFC0121854809F030FBAFF217511F2048
:10330000FEF7B9F81F20FEF7ACF8AFF2BD51202050
:10331000FEF7B1F82020FEF7A4F807B000BD10B505
:1033200086B00446864804600121480509F03DFE48
:103330000121022009F006FE0121022009F002FE0F
:103340000121880309F042FE0121480509F095FE9C
:1033500000214FF4001009F090FE40200090022060
:103360008DF804008DF8050001208DF8060000207E
:103370008DF807006946714809F08AF980200090AD
:1033800069466E4809F084F9042206216B4809F069
:103390000AFA04220721694809F005FA5B4809F096
:1033A00037FA0020ADF80C004BF6FF70ADF80E00B8
:1033B000A020ADF810004FF48060ADF81200604816
:1033C000006802904FF48040ADF8140002A94F4805
:1033D00009F047FA012211024C4809F0B9FB01211A
:1033E0004A4809F0BAFA06B010BDF8B504460D46D1
:1033F0001646FFF749FC6A4600214F48006806F070
:103400001BF80220404908704E480470434805608C
:10341000454806700A20404908700020404908705D
:1034200001213A4809F0C5FA01224FF4C06137483A
:1034300009F08EFB0121354809F09BFA6A4600210C
:103440003A48006805F0F8FF3B48006806F0A6F827
:103450009DF80000364909780843C0B2F8BDF8B5B8
:1034600004460D461646FFF70FFC6A460021324817
:10347000006805F0E1FF022023490870314804701C
:103480003148056070B23149087001202249087046
:1034900000202F49087001211C4809F08AFA0122F6
:1034A00051021A4809F054FB0121184809F061FA49
:1034B0006A4600211F48006805F0BEFF1E480068EC
:1034C00006F06CF89DF80000194909780843C0B26D
:1034D000F8BDF8B504460D4616461F46FFF7D4FB67
:1034E0006A4600211448006805F0A6FF012006493D
:1034F000087014480470074805701348066078B2D5
:1035000012490870012025E0B1000020005400405D
:1035100082000700C2000020B0000020BC00002094
:10352000C1000020D8000020C0000020CC000020F6
:10353000CA000020D0000020D40000200004024077
:10354000C4000020B2000020B4000020B800002019
:10355000B900002030490870002030490870304917
:10356000087001212F4809F024FA012251022D4848
:1035700009F0EEFA01212B4809F0FBF96A464FF4F5
:10358000FA612948006805F057FF2848006806F0EE
:1035900005F89DF80000264909780843C0B2F8BD37
:1035A000F8B504460D4616461F46FFF76DFB6A4602
:1035B00000211E48006805F03FFF01201D490870EA
:1035C0001D4804701D4805701D4806601D480770A1
:1035D0000A201149087000201B4908700121114878
:1035E00009F0E7F9012251020E4809F0B1FA012170
:1035F0000C4809F0BEF96A4600211448006805F03D
:103600001BFF0A48006805F0C9FF9DF80000084943
:1036100009780843C0B2F8BDB0000020B90000200E
:10362000C800002000540040D0000020D40000203A
:10363000CA000020B1000020B2000020C20000201B
:10364000BC000020C0000020C1000020CC000020F1
:1036500000B587B00121880509F0A7FC01210220EF
:1036600009F070FC0121022009F06CFC01218803A3
:1036700009F0ACFC0121880509F0FFFC00214FF4A2
:10368000800009F0FAFC4FF48060019002208DF870
:1036900008008DF8090001208DF80A0000208DF83F
:1036A0000B0001A9F84808F0F3FF4FF40060019007
:1036B00001A9F54808F0ECFF04220A21F24809F0BC
:1036C00072F804220B21F04809F06DF8EF4809F078
:1036D0009FF80020ADF810004BF6FF70ADF8120017
:1036E000A020ADF814004FF48060ADF81600E84853
:1036F000006803904FF48040ADF8180003A9E34838
:1037000009F0AFF801221102E04809F021FA012185
:10371000DE4809F022F907B000BD10B51421DB48DE
:1037200009F00BFA00F47F40DA4908800846008867
:1037300030B1D64814300088C0B2D4491431088062
:103740000120D449088000224102D04809F000FA43
:10375000D1480068807A18B1CF48006805F01EFF94
:10376000CE480068807A18B1CC48006805F016FF92
:10377000FFF76EFF10BD10B50446C6480480002256
:103780004FF4C061C14809F0E3F9C3480068807A8A
:1037900018B1C148006805F001FFC0480068807A90
:1037A00018B1BE48006805F0F9FEFFF751FF10BDE3
:1037B00010B5BB4890F90000092870D008DC092832
:1037C0006ED2DFE800F06D0E6ED66D6D6D46B30003
:1037D0000A2879D00B2878D0102877D014285FD108
:1037E0000EE1B0480078012815D1AF49A74809F08B
:1037F000FDF901280BD1AD4800784006010E0022EA
:10380000A24809F0CEF80220A549087020E0012066
:10381000FFF7B1FF1CE0A3480078022815D19B48B0
:1038200009F0B4F9A24988420BD1A04800784006BB
:10383000010E0122954809F0B4F802209849087059
:1038400006E00120FFF797FF02E00120FFF793FF5A
:10385000C9E100209749086004E096480068401CD0
:1038600094490860894809F091F9914908408842D3
:10387000F3D1864809F08AF98D4988420BD18B48EB
:1038800000784006010E0122804809F08AF80820DD
:103890008349087002E00120FFF76DFFA3E132E0E9
:1038A000A0E180480078012815D1784809F06EF928
:1038B000814988420BD181480178744809F0F5F8B4
:1038C0000920774908701DE0CCE007E142E10120C2
:1038D000FFF751FF16E073480078022812D16B48B9
:1038E00009F054F97249491C884208D10122910219
:1038F000664809F02DF903206949087002E00120AB
:10390000FFF739FF6FE1614809F040F96A49891C06
:10391000884207D101215D4809F02BF80720604952
:10392000087002E00120FFF726FF5CE100206149FA
:10393000086004E05F480068401C5E490860534826
:1039400009F024F95A49491C08408842F2D15948E3
:103950000068B0F5805F08D2012291024B4809F05F
:10396000F7F803204E49087002E00120FFF703FF3B
:1039700039E100204F49086004E04E480068401CCF
:103980004C490860414809F001F949493F31084074
:103990008842F2D13D4809F0F9F845493F31884263
:1039A00004D04749394809F021F928B3374809F0CC
:1039B0007EF8444991F90040611C49B2414A1170B6
:1039C000414909680855104690F900003F4991F9AE
:1039D0000010884213DB01212C4808F0D6FF00229A
:1039E0004FF48061294809F0B3F814202C4908707D
:1039F00000202849088002E00120FFF7BCFEF2E029
:103A000000202C49086004E02A480068401C29492D
:103A100008601E4809F0BAF825493F31084088423D
:103A2000F2D11A4809F0B2F821493F31884215D144
:103A30000022C111154809F08BF81848006805F0FC
:103A4000ADFD23480078401C2149087008460078E5
:103A5000022806D100200F49088002E00120FFF76C
:103A60008AFEC0E0094809F091F81149884231D135
:103A70000E4800784006010E0022044808F091FF2D
:103A80000B200749087028E000040240005800405D
:103A9000F4000020FA000020FC00002000010020BB
:103AA000E0000020E100002001000002E200002010
:103AB000010003001001002082000700F200002036
:103AC00040000006E9000020E4000020E80000209B
:103AD000F80000200120FFF74EFE84E0FA4800784D
:103AE000012813D1F94809F051F8F949884230D139
:103AF000F8480178F54808F0D8FF1020F64908701A
:103B000001228101F14809F023F822E0EE48007813
:103B100002281BD1ED4809F039F8ED49884218D147
:103B200001229102E94809F013F8EC480068EC4AD8
:103B30001278815CE54808F0B8FFE9480078401C3D
:103B4000E74908701020E449087002E00120FFF7FF
:103B500012FE48E0DD4809F019F8E249086008461D
:103B60000068DB49891E884220D1DD480078DE49A3
:103B70000978884210DAD9480068D94A1278815CFD
:103B8000D24808F092FFD6480078401CD44908700B
:103B90001020D149087024E000224FF48061CB4806
:103BA00008F0D6FF1020CC4908701AE0CD48006814
:103BB000C749891C884211D10121C44808F0E5FE9B
:103BC00000224FF4C061C14808F0C2FFC748006836
:103BD00005F0E4FC0020C649088002E00120FFF760
:103BE000CAFD00E000BF00BF10BD00B587B00020D7
:103BF00005F095FBBD490860002005F090FBBD492C
:103C00000860012005F08BFBBB4908600121880595
:103C100009F0CBF90121022009F094F901210220D9
:103C200009F090F90121880309F0D0F901218805F4
:103C300009F023FA00214FF4800009F01EFA4FF436
:103C40008060019002208DF808008DF809000120A5
:103C50008DF80A0000208DF80B0001A9A74808F094
:103C600017FD4FF40060019001A9A44808F010FD71
:103C700004220A21A14808F096FD04220B219F4846
:103C800008F091FD914808F0C3FD0020ADF8100048
:103C90004BF6FF70ADF81200A020ADF814004FF401
:103CA0008060ADF816009648006803904FF480409D
:103CB000ADF8180003A9854808F0D3FD21208DF840
:103CC000000001208DF8030003208DF801008DF81D
:103CD0000200684606F0F9FE012211027B4808F056
:103CE00037FF0121794808F038FEAFF23B5121201F
:103CF000FDF7C1FB2120FDF7B4FBAFF2E15122201B
:103D0000FDF7B9FB2220FDF7ACFB07B000BD10B5F5
:103D100086B004467A4804600121880509F045F917
:103D20000121022009F00EF90121022009F00AF90F
:103D30000121880309F04AF90121880509F09DF95C
:103D400000214FF4800009F098F94FF48060009052
:103D500002208DF804008DF8050001208DF8060082
:103D600000208DF807006946644808F091FC4FF484
:103D7000006000906946614808F08AFC04220A212C
:103D80005E4808F010FD04220B215C4808F00BFD92
:103D90004E4808F03DFD0020ADF80C004BF6FF70DA
:103DA000ADF80E00A020ADF810004FF48060ADF823
:103DB00012005348006802904FF48040ADF81400A0
:103DC00002A9424808F04DFD012211023F4808F0C7
:103DD000BFFE01213D4808F0C0FD06B010BDF8B59A
:103DE00004460D461646FFF733FC6A46002142485A
:103DF000006805F021FB0220334908704148047037
:103E000036480560384806700A203349087000209B
:103E10003349087001212D4808F0CBFD01224FF4F1
:103E2000C0612A4808F094FE0121284808F0A1FD4D
:103E30006A4600212D48006805F0FEFA2E48006809
:103E400005F0ACFB9DF80000294909780843C0B291
:103E5000F8BDF8B504460D461646FFF7F9FB6A466D
:103E600000212548006805F0E7FA0220164908708D
:103E7000244804702448056070B224490870012069
:103E80001549087000202249087001210F4808F0E8
:103E900090FD012251020D4808F05AFE01210B4805
:103EA00008F067FD6A4600211248006805F0C4FA70
:103EB0001148006805F072FB9DF800000C49097874
:103EC0000843C0B2F8BD0000E100002000580040E7
:103ED00082000700F2000020E0000020EC0000203B
:103EE000F10000200C010020F0000020FC00002068
:103EF000FA0000200001002004010020000402401C
:103F0000F4000020E2000020E4000020E80000208F
:103F1000E9000020F8B504460D4616461F46FFF797
:103F200097FB6A4600213948006805F085FA0120B0
:103F300037490870374804703748057037480660BD
:103F400078B2374908700120364908700020364998
:103F50000870364908700121354808F02AFD012211
:103F60005102334808F0F4FD0121314808F001FD09
:103F70006A4641F288312F48006805F05DFA23480F
:103F8000006805F00BFB9DF800002B4909780843F9
:103F9000C0B2F8BDF8B504460D4616461F46FFF7F9
:103FA00057FB6A4600211948006805F045FA0120D0
:103FB0001749087017480470174805701F480660B5
:103FC0001F4807700A201749087000201D49087013
:103FD0000121174808F0EDFC01225102144808F0B5
:103FE000B7FD0121124808F0C4FC6A4600211648BA
:103FF000006805F021FA0548006805F0CFFA9DF841
:1040000000000D4909780843C0B2F8BD0401002042
:10401000E1000020E2000020F2000020E400002087
:10402000E8000020E0000020E9000020F800002067
:104030000058004000010020FA000020EC000020A1
:10404000F0000020F1000020FC00002000B587B047
:104050000121C80508F0A9FF0121042008F072FF22
:104060000121084608F06EFF0121880308F0AEFF29
:104070000121C80509F001F800214FF4000008F003
:10408000FCFF4FF48070019002208DF808008DF83D
:10409000090001208DF80A0000208DF80B0001A90D
:1040A000FE4808F0F5FA4FF40070019001A9FC48B1
:1040B00008F0EEFA04220821F84808F074FB042204
:1040C0000921F74808F06FFBF64808F0A1FB002033
:1040D000ADF810004BF6FF70ADF81200A020ADF85F
:1040E00014004FF48060ADF81600EF4803904FF4D1
:1040F0008040ADF8180003A9EA4808F0B2FB01229D
:104100001102E84808F024FD0121E64808F025FCEA
:1041100007B000BD10B51421E24808F00EFD00F410
:104120007F40E24908800846008830B1DD481430FD
:104130000088C0B2DB49143108800120DB490880C7
:1041400000224102D74808F003FDD948006805F075
:1041500025FAFFF77BFF10BD10B5D64890F9000097
:10416000112870D2DFE800F06F09478F6F6F6F354D
:104170007F70CBDD6F6F6F6FFC00CF480078012838
:1041800011D1CE49C74808F031FD012820D1CC48D3
:1041900000784006010E0022C24808F002FC02200E
:1041A000C449087014E0C4480078022810D1C349FB
:1041B000BC4808F01BFD01280AD1C1480078400620
:1041C000010E0122B74808F0ECFB0220B949087043
:1041D0003BE1BA49B34808F009FD01280AD1B848C3
:1041E00000784006010E0122AE4808F0DAFB0820F4
:1041F000B049087029E1B048007801280FD1AF49D3
:10420000491CA84808F0F2FC01281BD1AD480178F0
:10421000A44808F04AFC0920A649087012E0A64804
:10422000007802280ED1A549491C9E4808F0DEFC02
:10423000012807D1012281029A4808F089FC032055
:104240009C49087001E1FFE09C49C91C954808F0B1
:10425000CDFC012806D10121924808F08AFB0720F5
:1042600094490870F1E09549491C8E4808F0BEFC5D
:10427000012807D1012281028A4808F069FC032045
:104280008C490870E1E09049864808F0AFFC18B30B
:10429000844808F00CFC8D4991F900200978491CEC
:1042A00049B28A4B19708A4909688854894890F93B
:1042B0000000194691F9001088420EDA794808F09A
:1042C000F6FB844991F900200978491C49B2814BD9
:1042D00019707F490968885410E00121714808F07D
:1042E00054FB00224FF4C0616E4808F031FC7A485C
:1042F000006805F053F900206C490880A5E06F497B
:10430000684808F073FC01280AD16D48007840061F
:10431000010E0022634808F044FB0B206549087039
:1043200093E06548007801281BD15E4808F02EFC18
:104330006A49884206D06149491C5A4808F056FC2F
:10434000012837D15F480178564808F0AEFB1020AD
:104350005849087001228101524808F0F9FB29E010
:1043600029E055480078022822D14E4808F00EFC7A
:104370005A49884206D05149491C4A4808F036FC3F
:10438000012817D101229102464808F0E1FB544868
:104390000068544A1278815C424808F086FB514814
:1043A0000078401C4F49087010204249087001E015
:1043B00000BFFEE749E03B4808F0E8FB04464748F9
:1043C000801E844220D147480078474909788842B6
:1043D00010DA43480068434A1278815C314808F09B
:1043E00064FB40480078401C3E4908701020314969
:1043F000087028E000224FF480612A4808F0A8FBEA
:1044000010202C4908701EE03448801C844206D0DD
:104410002A49C91C234808F0E9FB012811D10121D0
:10442000204808F0B2FA00224FF4C0611D4808F09D
:104430008FFB1F48006805F0B1F800201B49088079
:1044400001E000BFFEE700E000BF00BF10BD00B507
:1044500087B0002004F063FF15490860002004F0D5
:104460005EFF1D490860012004F059FF1F490860E4
:104470000121C80508F099FD0121042008F062FD22
:104480000121084608F05EFD0121880308F09EFD29
:104490000121C80508F0F1FD002129E000000240DB
:1044A00000080240005C0040A086010028010020B6
:1044B0002C01002014010020150100200100000241
:1044C0001601002026010020400000061C010020EB
:1044D000180100201D01002030010020820007008B
:1044E00020010020250100202401002034010020AB
:1044F0004FF4000008F0C1FD4FF4807001900220DD
:104500008DF808008DF8090001208DF80A000020C0
:104510008DF80B0001A9974808F0BAF84FF4007025
:10452000019001A9944808F0B3F8042208219148A9
:1045300008F039F9042209218F4808F034F98F482E
:1045400008F066F90020ADF810004BF6FF70ADF8EA
:104550001200A020ADF814004FF48060ADF81600F2
:10456000874803904FF48040ADF8180003A98348B2
:1045700008F077F901221102804808F0E9FA0121D8
:104580007E4808F0EAF9AFF22F414820FCF773FFAC
:104590004820FCF766FFAFF283414920FCF76BFF30
:1045A0004920FCF75EFF07B000BDF8B504460D4694
:1045B00016466A4600217348006804F03DFF022059
:1045C000714908707148047071480560714806703F
:1045D0000A2071490870002070490870012167485D
:1045E00008F0E7F901224FF4C061644808F0B0FA1E
:1045F0000121624808F0BDF96A4600216848006858
:1046000004F01AFF5F48006804F0C8FF9DF800003E
:10461000644909780843C0B2F8BDF8B504460D46B0
:1046200016461F466A4600215648006804F004FFFB
:10463000012055490870554804705B48057054487E
:104640000660544807700A205349087000205349F7
:1046500008700121494808F0ACF90122510247488D
:1046600008F076FA0121454808F083F96A460021EE
:104670004B48006804F0E0FE4248006804F08EFFFA
:104680009DF80000474909780843C0B2F8BDF8B565
:1046900004460D4616466A4600213A48006804F072
:1046A000CBFE022038490870384804703F48056046
:1046B00070B23F49087001203749087000203D4919
:1046C000087001212D4808F074F9012251022B488D
:1046D00008F03EFA0121294808F04BF96A4600210A
:1046E0003548006804F0A8FE2648006804F056FF2C
:1046F0009DF800002B4909780843C0B2F8BDF8B511
:1047000004460D4616461F466A4600211D480068AD
:1047100004F092FE02201C4908701C4804702248D4
:1047200005702248066078B22149087001201A49B4
:10473000087000201F4908700121104808F039F95D
:10474000012251020D4808F003FA01210B4808F03C
:1047500010F96A4600211848006804F06DFE094807
:10476000006804F01BFF9DF800000E49097808431B
:10477000C0B2F8BD0000024000080240005C0040EA
:10478000A086010034010020150100201601002040
:104790002001002024010020140100202501002018
:1047A0002C010020280100202601002018010020F3
:1047B0001C0100201D010020300100201CB501213A
:1047C000084608F0BFFB01208DF804008DF80600B4
:1047D0008DF8070002208DF80500082000900821C0
:1047E000724807F0D1FF6946704807F051FF012178
:1047F000084608F0A7FB0420009004216B4807F04E
:10480000C3FF6946694807F043FF00201CBD01460D
:10481000002201E000BF521C8A42FBD300207047F7
:1048200000B5042061494883082048834FF47A701A
:10483000FFF7EDFF04205D4908834FF4FA70FFF79E
:10484000E6FF082059490883002000BD10B5042068
:1048500056494883082008834FF47A70FFF7D7FF42
:1048600004205249088300240AE008214F4807F039
:1048700071FF20B904204D494883002010BD641CFD
:10488000B4F57A7FF1D30420484948830120F5E745
:1048900010B5044600231AE004204449488304FA72
:1048A00003F000F0800010B10820088302E0082027
:1048B0003E4948834FF47A70FFF7A9FF04203B4933
:1048C00008834FF47A70FFF7A2FF581CC3B2082B7D
:1048D000E2DB042035494883002010BD10B50446B2
:1048E00000231AE004203149488304FA03F000F061
:1048F000800010B10820088302E008202B4948837B
:104900004FF47A70FFF783FF0420284908834FF49F
:104910007A70FFF77CFF581CC3B2082BE2DB04203F
:1049200022494883002010BD00B508201F49088394
:10493000042008834FF47A70FFF769FF08201B49B1
:1049400048834FF47A70FFF762FF002000BD2DE925
:10495000F04105460E461746FFF7E6FFFE2101EA45
:104960004500FFF7BBFFFFF771FF10B10120BDE865
:10497000F081002408E0305DFFF78AFFFFF766FF53
:1049800008B10120F3E7641CBC42F4D3FFF748FFF1
:104990000020ECE703460020704710B504460020D5
:1049A00010BD10B50446002010BD000000000240FC
:1049B00000B587B00121480708F0F7FAF9490868FF
:1049C000012108F0BFFAF8480088059003208DF80F
:1049D000180000208DF81B00F449086805A907F0AD
:1049E00057FEF1484088059003208DF818000020FC
:1049F0008DF81B00ED49486805A907F049FE06F04F
:104A0000F9FF0020039004900190029001A906F0A4
:104A1000FCFF0121002007F015F80021084607F0EF
:104A20005FF801A9102006F0F0FF0121102007F027
:104A300009F80021084607F060F8002007B000BD23
:104A400070B504460D460CB1012C02D1B5F5805F5E
:104A500001DB002070BD24B92946002007F040F892
:104A600005E0012C03D12946002007F046F801207B
:104A7000F0E710B59CB04FF48050FDF7FAFA6C22C5
:104A8000CB494FF48050FDF70FFB6C2201A94FF486
:104A90008050FDF7C6FA00242FE004EB440201AB7E
:104AA00053F8221004EB4402C14B53F8220009F0E2
:104AB0004BFF20D004EB440201AB03EB8202916870
:104AC00004EB4402BA4B03EB8202906809F03CFF0E
:104AD00011D004EB440201AB03EB8202516804EBFA
:104AE0004402B34B03EB8202506809F02DFF02D061
:104AF00001201CB010BD601CC4B2092CCDDB00200D
:104B0000F7E710B5AB49AC4807F02CFA00240BE0EE
:104B1000AA4850F82400AA4931F814100844A749BB
:104B200041F82400601CC4B2092CF1DBA5480088C0
:104B3000401C80B2A3490880B0F5807F1CD10021C1
:104B4000A14806F07EF800209E49088000240DE070
:104B50009A4850F82400C0F30F209C4921F8140013
:104B60000020964941F82400601CC4B2092CEFDBF8
:104B70009748006804F012FD10BD10B59CB00020ED
:104B800004F0CDFB924908600121072008F0DAF912
:104B90000121080208F01AFA0121880508F0D2F96B
:104BA000002000908648029087484C3001900020F9
:104BB000039009200490002005904FF48060069037
:104BC00040000790800008904011099040020A9030
:104BD00000200B9001200C9000200D900E90694653
:104BE000754807F0B1F80121734807F0E7F8012292
:104BF0001021714807F06FF9AFF2F9013820FCF786
:104C00003AFC3820FCF72DFC0F200F9003208DF884
:104C1000400000208DF843000FA96E4807F038FDD2
:104C20004F200F9003208DF8400000208DF84300A6
:104C30000FA9694807F02CFD062011904FF4706011
:104C40001490002013904FF40030129011A805F03A
:104C5000E1FF0020159001208DF858008DF85900D3
:104C6000002017901890199009208DF8680015A958
:104C7000554805F0A0FF002409E0601CC2B2574867
:104C8000015D0723504806F01CF8601CC4B2092CD3
:104C9000F3DB01214C4806F0BFF801214A4806F039
:104CA000B0F804221BA99002FDF7BBF99DF86C0037
:104CB000FF280BD19DF86D00FF2807D19DF86E00ED
:104CC000FF2803D19DF86F00FF280BD09DF86C00E2
:104CD00058B99DF86D0040B99DF86E0028B99DF84F
:104CE0006F0010B9FFF7C5FE05E06C2230494FF4A4
:104CF0008050FDF796F901201CB010BD02880B888A
:104D000003800A807047F0B505460E46002715E07F
:104D100000240EE035F81410601C35F810008142B4
:104D200006DD621C05EB420105EB4400FFF7E6FFE0
:104D3000641CF01B401EA042ECDC7F1C701EB842BD
:104D4000E6DCF0BD10B502211F4806F037F9012856
:104D500068D102211C4806F03AF91B4806F049F8D0
:104D600016491F4A127851F82210014413481C4A70
:104D7000127840F822101A480078401C1849087030
:104D800008460078092806D1002008700D480088E0
:104D9000401C0C4908800B480088B0F5807F35D155
:104DA00000202DE0D0FC0008CAFC000860010020B3
:104DB000680100202080001010640240BC27002001
:104DC000AA270020D60100200020014098270020BB
:104DD000380100200008024000000240C0FC00082A
:104DE000D4010020474951F82010C1F30F21464A51
:104DF00022F810100021434A42F82010411CC8B28A
:104E00000928EFDB0021414A118000BF4048414A98
:104E10001278815C072301223F4805F052FF3E488B
:104E200005F0ABFF10BD0146374830F81100704760
:104E3000F8B504460121384805F003FF364805F06F
:104E40009CFF6A4600213548006804F0F5FA2E49B7
:104E500031F8140009F072FD074604EB4400304AB3
:104E600052F82010384609F0F9FC064604EB4400DD
:104E70002B4A02EB80004168304609F021FD0546CF
:104E800004EB4400264A02EB80008168284609F0C2
:104E90008DFCF8BD10B5012905D100EB4003204C75
:104EA00044F8232010E0032906D100EB40031C4CFA
:104EB00004EB83039A6007E0022905D100EB40036D
:104EC000174C04EB83035A6010BD0246012905D13B
:104ED00002EB4200124B53F820007047032906D121
:104EE00002EB42000E4B03EB80008068F5E70229DD
:104EF00006D102EB42000A4B03EB80004068ECE76E
:104F00000020EAE7BC27002098270020D6010020D7
:104F1000C0FC0008D401002000200140380100201E
:104F20006801002010B5002400BF00BF00F052F956
:104F3000044600BF00BF1021A14800F097FE00BF4B
:104F400000BF204600F04AF900BF00BF10BD10B5F9
:104F5000FFF7E8FF10BD10B500209A490860FCF784
:104F600042FA10BD10B5FFF7F6FFFFF7F0FF10BDD6
:104F700000BFFEE770B505460C46002614B900BF19
:104F8000FFF7F6FF15B90A20208070BD00BF00BFF3
:104F900000F020F9064600BF00BF102288492846CD
:104FA00001F092FD00BF00BF304600F017F900BFCE
:104FB00000BF0020208000BFE7E72DE9F041054653
:104FC0000C46002714B900BFFFF7D2FF1DB90A2015
:104FD0002080BDE8F0811021284601F05DFD0646E5
:104FE000102E15D200BF00BF00F0F4F8074600BF36
:104FF00000BF10222946724801F066FD00BF00BFC5
:10500000384600F0EBF800BF00BF0020208002E02F
:105010004FF47A70208000BFDBE710B5FCF7F9F998
:105020000446204610BD704700B5014611B900BFC7
:10503000FFF79EFF634A106808B1002201E04FF4B9
:10504000FA620A8000BD5F490860704770B5054686
:10505000284600F0CAF80446183C204670BD70B5DA
:105060000546284600F0C1F80446103C204670BDB5
:1050700070B50546284600F0B8F8044600BF204643
:1050800070BD30B502460B460024D2F1FF359C417D
:1050900026D24FF6FF74D2F1FF359C410FD26FF04C
:1050A0007F44D2F1FF359C4103D2190E464C605C1F
:1050B00044E0190C444C645C04F108003EE0FF2419
:1050C000D2F1FF359C4105D2190A3F4C645C04F1D2
:1050D000100033E019463C4C645C04F118002DE0EC
:1050E0004FF6FF750024AD1A9C4115D26FF07F4535
:1050F0000024AD1A9C4107D2140E44EA0321324C1D
:10510000645C04F1200019E0140C44EA03412E4CC5
:10511000645C04F1280011E00024D2F1FF059C41F9
:1051200007D2140A44EA0361274C645C04F130009E
:1051300004E01146244C645C04F1380030BD70B5C5
:1051400004460CB9082070BD204600F051F8054611
:105150002846F8E770B504460CB9102070BD20460B
:1051600000F046F805462846F8E770B504460CB945
:10517000202070BD204600F03BF805462846F8E7A1
:105180002DE9F04304460D46002184EA0100694000
:10519000084302D14020BDE8F083E243E843521CBB
:1051A00040F1000102EA040601EA050730463946EB
:1051B000FFF767FF8046C8F13F094846EBE700006C
:1051C000E0270020D8010020D8FC000872B6704704
:1051D00062B67047EFF3108072B6704780F31088A4
:1051E000704730BF704720BF7047B0FA80F07047FB
:1051F00090FAA0F0B0FA80F0704790FAA0F07047F3
:1052000010B5B0F1005F0AD3F84CA04207D84401B2
:1052100004EB810303F10852002414600CE0B0F1A8
:10522000804F09D3F24CA04206D8440104EB81031D
:1052300003F184420024146010BD10B5B0F1005F8A
:105240000AD3EA4CA04207D8440104EB810303F1DE
:105250000852012414600CE0B0F1804F09D3E44CF3
:10526000A04206D8440104EB810303F184420124E7
:10527000146010BD2DE9F04104464FF00008102CD9
:105280006BD2DFE804F0080E0F1014293E090A0B58
:105290000C11120D135300BF00BF00BF00BF00BFB1
:1052A00089E000BF00BF00BF00BF00BF83E000BFB8
:1052B00000BFFFF78FFF804600BF00BFCD480068EA
:1052C00020F48030CB49086000BF00BF4046FFF7A4
:1052D00085FF00BF00BF6EE000BF00BFFFF77AFF91
:1052E000804600BF00BFC348006820F40030C149B9
:1052F000086000BF00BF4046FFF770FF00BF00BF5F
:1053000059E000BF00BFFFF765FF804600BF00BF48
:10531000B848006820F48020B649086000BF00BF8C
:105320004046FFF75BFF00BF00BF44E000BF00BF87
:10533000FFF750FF804600BF00BF4FF0E02000693C
:1053400020F001004FF0E021086100BF00BF40469F
:10535000FFF744FF00BF00BF2DE04FF0E0204068A2
:10536000401C102101EB4010C6B2B44222DAA4F175
:105370001000C11700EBD161C1F34715C11700EB55
:10538000D1614911A0EB4111CFB200BF00BFFFF7BF
:1053900021FF804600BF00BF0120B840A90001F1F5
:1053A000E021C1F8800100BF00BF4046FFF716FFB3
:1053B00000BF00BF00BF00BFBDE8F0812DE9F04194
:1053C00004464FF00008102C6BD2DFE804F0080E02
:1053D0000F1014293E090A0B0C11120D135300BFB4
:1053E00000BF00BF00BF00BF89E000BF00BF00BF1B
:1053F00000BF00BF83E000BF00BFFFF7EBFE8046A9
:1054000000BF00BF7B48006840F4803079490860E5
:1054100000BF00BF4046FFF7E1FE00BF00BF6EE0E7
:1054200000BF00BFFFF7D6FE804600BF00BF714837
:10543000006840F400306F49086000BF00BF40467C
:10544000FFF7CCFE00BF00BF59E000BF00BFFFF771
:10545000C1FE804600BF00BF6648006840F480205F
:105460006449086000BF00BF4046FFF7B7FE00BFB9
:1054700000BF44E000BF00BFFFF7ACFE804600BFA6
:1054800000BF4FF0E020006940F001004FF0E02144
:10549000086100BF00BF4046FFF7A0FE00BF00BF8D
:1054A0002DE04FF0E0204068401C102101EB40103F
:1054B000C7B2BC4222DAA4F11000C11700EBD161DF
:1054C000C1F34715C11700EBD1614911A0EB4111A0
:1054D000CEB200BF00BFFFF77DFE804600BF00BF19
:1054E0000120B040A90001F1E021C1F8000100BF96
:1054F00000BF4046FFF772FE00BF00BF00BF00BF05
:10550000BDE8F0812DE9F04104464FF00008102C71
:1055100019D2DFE804F0080E0F10111516090A0B56
:105520000C12130D141700BF00BF00BF00BF00BF57
:1055300037E000BF00BF00BF00BF00BF00BF00BF1B
:1055400000BF00BF2DE04FF0E0204068401C10215C
:1055500001EB4010C7B2BC4222DAA4F11000C1171F
:1055600000EBD161C1F34715C11700EBD1614911BF
:10557000A0EB4111CEB200BF00BFFFF72BFE80466B
:1055800000BF00BF0120B040A90001F1E021C1F837
:10559000800200BF00BF4046FFF720FE00BF00BFF3
:1055A00000BF00BFBDE8F0812DE9F05F06460D4663
:1055B0004FF0000B2846FFF720FE82464FEA1A659F
:1055C000102E71D2DFE806F0080E0F10182D4309D7
:1055D0000A0B0C59710D879E00BF00BF00BF00BFB2
:1055E00000BFE3E000BF00BFE0E00000FFFF0F20CE
:1055F000FFFF0F4024ED00E000BF00BFFFF7EAFD12
:10560000834600BF00BFDB48046824F0FF042C433E
:10561000046000BF00BF5846FFF7E0FD00BF00BFB9
:10562000C4E000BF00BFFFF7D5FD834600BF00BF49
:10563000D048046824F47F4444EA0524046000BF91
:1056400000BF5846FFF7CAFD00BF00BFAEE000BF75
:1056500000BFFFF7BFFD834600BF00BFC548046819
:1056600024F47F0444EA0544046000BF00BF5846A8
:10567000FFF7B4FD00BF00BF98E000BF00BFFFF719
:10568000A9FD834600BF00BFBA48001D046824F08E
:105690007F4444EA0564046000BF00BF5846FFF73A
:1056A0009DFD00BF00BF81E043E000BF00BFFFF7EA
:1056B00091FD834600BF00BFAE480830046824F067
:1056C000FF042C43046000BF00BF5846FFF786FD6F
:1056D00000BF00BF6AE000BF00BFFFF77BFD83464D
:1056E00000BF00BFA3480830046824F47F0444EAE4
:1056F0000544046000BF00BF5846FFF76FFD00BFC0
:1057000000BF53E000BF00BFFFF764FD834600BF4A
:1057100000BF98480830046824F07F4444EA0564D8
:10572000046000BF00BF5846FFF758FD00BF00BF30
:105730003CE04FF0E0204068401C102101EB40109D
:1057400000F0FF094E4530DAA6F11000C11700EB5A
:105750009171C1F38707C11700EB91718910A0EB1C
:10576000810101F0FF0800BF00BFFFF733FD834652
:1057700000BF00BFB80000F1E020D0F800444FEABD
:10578000C801FF20884084434FEAC80105FA01F0B0
:105790000443B80000F1E020C0F8004400BF00BF9F
:1057A0005846FFF71BFD00BF00BF00BF00BFBDE8AC
:1057B000F09F2DE9F05F06464FF0000B102E70D2DF
:1057C000DFE806F0080F1215182A3D090A0B0C49EC
:1057D0005C0D708400BF00BF00BF00BF00BF664CFF
:1057E000BDE06FF00204BAE06FF00104B7E04FF0E3
:1057F000FF34B4E000BF00BFFFF7ECFC834600BFFE
:1058000000BF5C480568ECB200BF00BF5846FFF718
:10581000E5FC00BF00BFA2E000BF00BFFFF7DAFC5D
:10582000834600BF00BF53480568C5F3072400BF87
:1058300000BF5846FFF7D2FC00BF00BF8FE000BF9B
:1058400000BFFFF7C7FC834600BF00BF494805689B
:10585000C5F3074483E000BF00BFFFF7BBFC8346EE
:1058600000BF00BF4348001D05682C0E00BF00BFED
:105870005846FFF7B3FC00BF00BF70E000BF00BF99
:10588000FFF7A8FC834600BF00BF3A480830056810
:10589000ECB200BF00BF5846FFF7A0FC00BF00BF3E
:1058A0005DE026E000BF00BFFFF794FC834600BF29
:1058B00000BF304808300568C5F3074400BF00BF8B
:1058C0005846FFF78BFC00BF00BF48E000BF00BF99
:1058D000FFF780FC834600BF00BF264808300568FC
:1058E0002C0E00BF00BF5846FFF778FC00BF00BF7A
:1058F00035E04FF0E0204068401C102101EB4010E3
:1059000000F0FF0A564528DAA6F11000C11700EB97
:105910009171C1F38708C11700EB91718910A0EB59
:10592000810101F0FF0900BF00BFFFF753FC834670
:1059300000BF00BF4FEA880000F1E020D0F800541B
:1059400000BF00BF5846FFF749FC00BF00BF4FEA49
:10595000C90025FA00F0C4B200E0074C00BF00BF48
:10596000002C04DB2046FFF748FC07463C0E20468F
:10597000BDE8F09F18ED00E00080FFFF01464129DF
:1059800003DB5A2901DC012200E00022012A08D0B1
:10599000612903DB7A2901DC012200E00022012ACF
:1059A00001D1012200E00022104670470146412942
:1059B00003DB5A2901DC012200E00022012A08D081
:1059C000612903DB7A2901DC012200E00022012A9F
:1059D00001D1012200E00022012A08D0302903DB96
:1059E000392901DC012200E00022012A01D1012233
:1059F00000E00022104670470146612903DB7A2946
:105A000001DC012200E000221046704701464129D6
:105A100003DB5A2901DC012200E000221046704716
:105A20000146302903DB392901DC012200E0002294
:105A3000104670470146302903DB372901DC01227B
:105A400000E00022104670470146302901DB392969
:105A500007DD412901DB462903DD612903DB6629D6
:105A600001DC012200E00022104670470146202997
:105A700001D0092901D1012200E00022104670471F
:105A80000146202909D00D2907D00A2905D00C2963
:105A900003D0092901D00B2901D1012200E0002205
:105AA000104670470146202903DB7E2901DC0122D4
:105AB00000E00022104670470146212903DB7E29C1
:105AC00001DC012200E00022104670470146202937
:105AD00003DB7E2901DC012200E00022012A35D10E
