:020000040800F2
:10000000F0480020050F00080D0F00080F0F000832
:10001000110F0008130F0008150F0008170F000834
:10002000170F0008170F0008170F0008170F000818
:10003000170F0008170F00084F6C0008D76D000855
:10004000D30B0008DD0B0008E70B0008F10B0008DC
:10005000FB0B0008050C00080F0C0008190C000829
:10006000230C00082D0C0008370C0008410C000878
:100070004B0C0008550C00085F0C0008690C0008C8
:10008000730C00087D0C0008870C0008910C000818
:100090009B0C0008A50C0008AF0C0008B90C000868
:1000A000C30C0008CD0C0008D70C0008E10C0008B8
:1000B000EB0C0008F50C0008FF0C0008090D000807
:1000C000130D00081D0D0008270D0008310D000854
:1000D0003B0D0008450D00084F0D0008590D0008A4
:1000E000630D00086D0D0008770D0008810D0008F4
:1000F0008B0D0008950D00089F0D0008A90D000844
:10010000B30D0008BD0D0008C70D0008D10D000893
:10011000DB0D0008E50D0008EF0D0008F90D0008E3
:10012000030E00080D0E0008170E0008210E00082F
:100130002B0E0008350E00083F0E0008490E00087F
:10014000530E00085D0E0008670E0008710E0008CF
:100150007B0E0008850E00088F0E0008990E00081F
:10016000A30E0008AD0E0008B70E0008C10E00086F
:10017000CB0E0008D50E0008DF0E0008E90E0008BF
:10018000F30E0008DFF80CD008F03EFD00480047F1
:1001900057020008F04800207047704700F0D8F878
:1001A00001F04EF901F084FF00F00BF904F023F99F
:1001B000FFF7F3FFFFF7F0FF7E2008F03EF828B1CD
:1001C00008F0BFFA01204549087002E000204349C9
:1001D00008700121C80208F0C4F94FF4C07008F09B
:1001E000D6FA7F2008F0DCFA7F2008F0F4FA01202C
:1001F00000F0B1FB022000F093FB2BE037480078C1
:1002000088B9374801780078401C354A10700929B0
:100210001ADD002011460870012000F0B7FB022013
:1002200000F0B4FB10E02E4801780078401C2C4A06
:100230001070142908DD002011460870012000F01C
:10024000A5FB022000F0A2FB322006F0C5F87F20BB
:1002500008F0BBFAD2E700B587B000F050FC01F01F
:10026000EFF803F0C1FF0320002180221D4BCDE9F0
:100270000132CDE90310022003461B4A00901B48BF
:1002800005F095FD06AA1AA1022005F000FF04F072
:100290009AF8012007B000BD30B504460A464FF673
:1002A000FF71002A01DC002116E0501EC2B20023BB
:1002B00010E0E05C4140002509E001F0010020B1C0
:1002C0004AF2010080EA510100E049086D1C072D47
:1002D000F3D95B1C9342ECD988B230BD0D000020ED
:1002E0000C000020C8000020C40200209D0100086E
:1002F0005374617274000000704770477047704714
:1003000070477047704770471CB500241DE0FE49D8
:1003100051F82400012108F0F1F8FC4830F81400ED
:10032000009001208DF8040000208DF806000120C7
:100330008DF8070002208DF80500F54951F82400DA
:10034000694607F095FE601CC4B2022CDFDB1CBDC1
:1003500010B5FFF7D9FF00F022FF10BD10B5012145
:10036000402008F0DCF8EB48006840F00800E9495C
:1003700008600846006840F00400086000BFE548D7
:10038000001D006800F001000028F8D0E1480830A6
:100390000468E048006820F00800DE49086008466C
:1003A000006820F0040008600021402008F0B7F841
:1003B000204610BD1FB5684608F00BF8019804B040
:1003C00010BD70B5FFF7F6FF04464FF47A70B4FB2A
:1003D000F0F5284606F010FD70BD1CB50121084659
:1003E00008F0AEF801217A2008F088F8802000900B
:1003F00002208DF804008DF8050000208DF806001D
:100400008DF8070001208DF807006946C24807F003
:100410002FFE4FF6FB70009002208DF804008DF83F
:10042000050000208DF806008DF8070001208DF8EA
:1004300007006946B94807F01BFE0C220021B748A7
:1004400007F0A1FE0C220121B44807F09CFE0C220B
:100450000321B24807F097FE0C220421AF4807F0B1
:1004600092FE0C220521AD4807F08DFE0C220621DC
:10047000AA4807F088FE0C220721A84807F083FE4F
:100480000C220821A54807F07EFE0C220921A34872
:1004900007F079FE0C220A21A04807F074FE0C2216
:1004A0000B219E4807F06FFE0C2211469B4807F077
:1004B0006AFE0C220D21994807F065FE0C220E21E0
:1004C000964807F060FE0C220F21944807F05BFE6F
:1004D0004FF6FB7000906946914807F0C9FD0C2269
:1004E00000218F4807F04FFE0C2201218C4807F0B5
:1004F0004AFE0C2203218A4807F045FE0C22042103
:10050000874807F040FE0C220521854807F03BFE96
:100510000C220621824807F036FE0C220721804873
:1005200007F031FE0C2208217D4807F02CFE0C223A
:1005300009217B4807F027FE0C220A21784807F0A2
:1005400022FE0C220B21764807F01DFE0C221146DC
:10055000734807F018FE0C220D21714807F013FEB6
:100560000C220E216E4807F00EFE0C220F216C4863
:1005700007F009FE4FF23F0000906946694807F016
:1005800077FD0C220021674807F0FDFD0C220121B8
:10059000644807F0F8FD0C220221624807F0F3FDE1
:1005A0000C2203215F4807F0EEFD0C2204215D4878
:1005B00007F0E9FD0C2205215A4807F0E4FD0C2262
:1005C0001146584807F0DFFD0C220D21554807F071
:1005D000DAFD0C220E21534807F0D5FD0C220F2125
:1005E000504807F0D0FD3F20009069464E4807F084
:1005F0003FFD0C2200214C4807F0C5FD0C220121D3
:10060000494807F0C0FD0C220221474807F0BBFD16
:100610000C220321444807F0B6FD0C220421424875
:1006200007F0B1FD0C2205213F4807F0ACFD40204A
:10063000009001208DF8040002208DF805000020B4
:100640008DF806008DF807006946364807F010FD62
:100650004021344807F08AFD41F210004FF020415C
:10066000086045F21000086040F2044048602F49DD
:1006700008604FF02040006840F001004FF020413A
:1006800008601CBD00B599B00121084607F058FF6D
:100690000121782007F032FF4FF6337001900220DD
:1006A0008DF8080003208DF8090000208DF80A005D
:1006B0008DF80B0001A9194807F0DAFC0C22002183
:1006C000164807F060FD0C220121144807F05BFD7D
:1006D0000C220421114807F056FD0C2205210F4879
:1006E00007F051FD0C2208210C4807F04CFD0C22AC
:1006F00009210A4807F047FD0C220A21074807F0A4
:1007000042FD0C220B2113E0609600085C96000865
:10071000100000200008065000040240000C0240B7
:10072000001002400014024000180240040100A022
:10073000E24807F028FD0C221146E04807F023FDAF
:100740000C220D21DD4807F01EFD0C220E21DB4896
:1007500007F019FD0C220F21D84807F014FD4FF6C1
:10076000FB70019001A9D64807F082FC0C22002101
:10077000D34807F008FD0C220121D14807F003FD02
:100780000C220321CE4807F0FEFC0C220421CC48A9
:1007900007F0F9FC0C220521C94807F0F4FC0C22F3
:1007A0000621C74807F0EFFC0C220721C44807F0D8
:1007B000EAFC0C220821C24807F0E5FC0C220921C2
:1007C000BF4807F0E0FC0C220A21BD4807F0DBFC23
:1007D0000C220B21BA4807F0D6FC0C221146B8486F
:1007E00007F0D1FC0C220D21B54807F0CCFC0C22FF
:1007F0000E21B34807F0C7FC0C220F21B04807F0C8
:10080000C2FC4FF23F00019001A9AE4807F030FC56
:100810000C220021AB4807F0B6FC0C220121A948AC
:1008200007F0B1FC0C220221A64807F0ACFC0C2218
:100830000321A44807F0A7FC0C220421A14807F0DB
:10084000A2FC0C2205219F4807F09DFC0C221146BA
:100850009C4807F098FC0C220D219A4807F093FC65
:100860000C220E21974807F08EFC0C220F21954890
:1008700007F089FC40F23F20019001A9924807F05F
:10088000F7FB0C220021904807F07DFC0C2201218F
:100890008D4807F078FC0C2202218B4807F073FC8E
:1008A0000C220321884807F06EFC0C2204218648A4
:1008B00007F069FC0C220521834807F064FC0C2238
:1008C0000921814807F05FFC002003900490042078
:1008D000059001200690002007900890099003A839
:1008E0001790189002200A9000200B900C90102076
:1008F0000D9000200F904FF48040159080101390C1
:1009000000200E90109011901290149016900AA84A
:1009100007F057F80121022007F0FFF819B000BDD9
:1009200010B5002801DD02280BDD002106E0674A32
:100930001288674B1B681A834A1C51B20229F6DBE6
:1009400010BD421E614B33F81230614C54F8222026
:10095000138300BFF4E710B5002801DD02280BDD8A
:10096000002106E0594A1288594B1B685A834A1CD9
:1009700051B20229F6DB10BD421E544B33F812303F
:10098000534C54F82220538300BFF4E770B504465B
:10099000002C01DD022C22DD00251EE04C4951F81F
:1009A000250007F0DDFB0646484830F815004640B4
:1009B000464A32F8152002EA0601454A52F8250057
:1009C00007F0D2FB414A32F8152022EA0601404ADC
:1009D00052F8250007F0CAFB70BD022DDEDB611E58
:1009E0003B4A52F8210007F0BBFB0646601E374920
:1009F00031F810004640621E0B4633F8122002EA1E
:100A00000601621E324B53F8220007F0ADFB621E56
:100A10002E4B33F8122022EA0601621E2C4B53F8AB
:100A2000220007F0A3FB00BFD6E71CB500241AE0A4
:100A3000284951F82400012107F060FD264830F8CC
:100A40001400009000208DF8040001208DF80700AC
:100A500002208DF80500214951F82400694607F06D
:100A600007FB601CC4B2012CE2DB1CBD10B50446C0
:100A7000002C01DC002010BD174A32F81410174A70
:100A800052F8240007F056FBF5E710B5144800684B
:100A900040F0807012490860002012494860084602
:100AA000006840F001000860FFF784FC044620461F
:100AB00000F037FD10BD0B4840687047000C024045
:100AC0000010024000140240001802405C9600082A
:100AD000100000206C96000868960008180000209E
:100AE000FCED00E0001000E0704710B50446512C0A
:100AF00004D204F11001C8B200F02AFE10BD10B5F6
:100B000000F0D2FD10BD10B50446512C04D204F102
:100B10001001C8B200F0C0FE10BD70B504460D460D
:100B20000026512C10D200BF00BF00F0C1FD0646C8
:100B300000BF00BFF14840F8245000BF00BF30465E
:100B400000F0BAFD00BF00BF70BD70B504460D4691
:100B50000026512C13D200BF00BF00F0A9FD0646AD
:100B600000BF00BF04F11001C8B2294600F08AFF9F
:100B700000BF00BF304600F09FFD00BF00BF70BD4A
:100B8000704710B5002404E0DD492046FFF7C5FF9B
:100B9000641C512CF8D310BD70B50446002600BF6C
:100BA00000BF00F085FD064600BF00BF03F038FB24
:100BB00000BF00BF304600F07FFD00BF00BF512CDA
:100BC00004D2CE4850F8245005B1A84703F036FBB4
:100BD00070BD10B50020FFF7DFFF10BD10B501207C
:100BE000FFF7DAFF10BD10B50220FFF7D5FF10BDEB
:100BF00010B50320FFF7D0FF10BD10B50420FFF79C
:100C0000CBFF10BD10B50520FFF7C6FF10BD10B516
:100C10000620FFF7C1FF10BD10B50720FFF7BCFF8E
:100C200010BD10B50820FFF7B7FF10BD10B50920A3
:100C3000FFF7B2FF10BD10B50A20FFF7ADFF10BDE2
:100C400010B50B20FFF7A8FF10BD10B50C20FFF763
:100C5000A3FF10BD10B50D20FFF79EFF10BD10B50E
:100C60000E20FFF799FF10BD10B50F20FFF794FF7E
:100C700010BD10B51020FFF78FFF10BD10B511206B
:100C8000FFF78AFF10BD10B51220FFF785FF10BDDA
:100C900010B51320FFF780FF10BD10B51420FFF72B
:100CA0007BFF10BD10B51520FFF776FF10BD10B506
:100CB0001620FFF771FF10BD10B51720FFF76CFF6E
:100CC00010BD10B51820FFF767FF10BD10B5192033
:100CD000FFF762FF10BD10B51A20FFF75DFF10BDD2
:100CE00010B51B20FFF758FF10BD10B51C20FFF7F3
:100CF00053FF10BD10B51D20FFF74EFF10BD10B5FE
:100D00001E20FFF749FF10BD10B51F20FFF744FF5D
:100D100010BD10B52020FFF73FFF10BD10B52120FA
:100D2000FFF73AFF10BD10B52220FFF735FF10BDC9
:100D300010B52320FFF730FF10BD10B52420FFF7BA
:100D40002BFF10BD10B52520FFF726FF10BD10B5F5
:100D50002620FFF721FF10BD10B52720FFF71CFF4D
:100D600010BD10B52820FFF717FF10BD10B52920C2
:100D7000FFF712FF10BD10B52A20FFF70DFF10BDC1
:100D800010B52B20FFF708FF10BD10B52C20FFF782
:100D900003FF10BD10B52D20FFF7FEFE10BD10B5EE
:100DA0002E20FFF7F9FE10BD10B52F20FFF7F4FE3F
:100DB00010BD10B53020FFF7EFFE10BD10B531208B
:100DC000FFF7EAFE10BD10B53220FFF7E5FE10BDBB
:100DD00010B53320FFF7E0FE10BD10B53420FFF74B
:100DE000DBFE10BD10B53520FFF7D6FE10BD10B5E7
:100DF0003620FFF7D1FE10BD10B53720FFF7CCFE2F
:100E000010BD10B53820FFF7C7FE10BD10B5392052
:100E1000FFF7C2FE10BD10B53A20FFF7BDFE10BDB2
:100E200010B53B20FFF7B8FE10BD10B53C20FFF712
:100E3000B3FE10BD10B53D20FFF7AEFE10BD10B5DE
:100E40003E20FFF7A9FE10BD10B53F20FFF7A4FE1E
:100E500010BD10B54020FFF79FFE10BD10B541201A
:100E6000FFF79AFE10BD10B54220FFF795FE10BDAA
:100E700010B54320FFF790FE10BD10B54420FFF7DA
:100E80008BFE10BD10B54520FFF786FE10BD10B5D6
:100E90004620FFF781FE10BD10B54720FFF77CFE0E
:100EA00010BD10B54820FFF777FE10BD10B54920E2
:100EB000FFF772FE10BD10B54A20FFF76DFE10BDA2
:100EC00010B54B20FFF768FE10BD10B54C20FFF7A2
:100ED00063FE10BD10B54D20FFF75EFE10BD10B5CE
:100EE0004E20FFF759FE10BD10B54F20FFF754FEFE
:100EF00010BD10B55020FFF74FFE10BDC8020020F6
:100F0000810B00080548804705480047FEE7FEE7DB
:100F1000FEE7FEE7FEE7FEE7FEE70000E50F00085C
:100F2000850100080CB50020019000906B48006816
:100F300040F480306949086000BF6848006800F4E8
:100F4000003000900198401C0190009818B9019859
:100F5000B0F5A06FF1D16148006800F4003010B125
:100F60000120009001E0002000900098012838D175
:100F70005A48083000685949083108600846006836
:100F800040F4004008600846006840F4A050086043
:100F90005348091F0860081F006840F08070091F4F
:100FA000086000BF4D48006800F000700028F9D0CC
:100FB00040F203704B49086048480830006820F050
:100FC00003004649083108600846006840F0020006
:100FD000086000BF41480830006800F00C00082895
:100FE000F8D10CBD10B53D48006840F001003B4908
:100FF00008600020394908310860384800683A49DB
:101000000840364908603948091D0860081F006813
:1010100020F48020091F0860002030490C3108604E
:10102000FFF780FF4FF000603149086010BD70B5D8
:1010300000200022022300240221284D08352D68BB
:1010400005F00C0020B1042806D0082834D107E0B0
:10105000284D294E356033E0284D274E35602FE06E
:101060001E4D2D1D2D68C5F380541C4D2D1D2D6862
:1010700005F03F0154B1214DB5FBF1F5174E361D7A
:101080003668C6F3881605FB06F209E0194DB5FB74
:10109000F1F5124E361D3668C6F3881605FB06F2CA
:1010A0000E4D2D1D2D68C5F301456D1C6B00B2FB67
:1010B000F3F5114E356003E00E4D0F4E356000BF65
:1010C00000BF064D08352D68C5F303150C4E705D45
:1010D000094D2D68C540084E356070BD003802408E
:1010E000083C4005003C0240FFFFF6FE10300024A3
:1010F00008ED00E00024F4001C00002000127A003B
:101100002000002010B5B34800680078D0B100245A
:101110000AE0B04800680178AF480155AD48006862
:10112000401CAC490860641C082C04DAA94800681B
:1011300000780028EDD1A8490B398C72A74806F039
:10114000BFF808E000220121A44806F0C9FAA4482B
:10115000006804F091FC10BD10B5A2480468A24AD2
:1011600000219E4806F0A1F915E09F49A068096892
:1011700088420FD1607B9C49497A88420AD1207B02
:101180009949097A884205D19748817A0B302269BA
:10119000904702E06468002CE7D100BF10BD1CB589
:1011A000002004F02AFB91490860012004F025FB8F
:1011B0008B4908600121022007F0A0F909220C21C7
:1011C0008B4806F0E0FF09220D21894806F0DBFF7D
:1011D0004FF44050009002208DF804008DF8050077
:1011E00000208DF8060001208DF807006946804830
:1011F00006F03EFF01214FF0C06007F0B2F97748DA
:1012000005F0CCFE00207B498871C87108724872D5
:101210008872C8728870C8700520087107204871EC
:10122000022008806D4805F0D2FE0E2072498872B7
:101230000020C87201200873002008804880888040
:10124000C880088101204873084605F04AFF40F233
:10125000213061490B390860012048600020487244
:10126000087201208872012202215C4806F038FAD7
:10127000AFF21B114020FFF750FC4020FFF743FC6A
:10128000AFF27F113F20FFF748FC3F20FFF73BFC08
:101290001CBD70B5054600BF00BF00F009FA064648
:1012A00000BF00BFEDB14F4804680CB905600FE006
:1012B0000DE0606850B965602C6000BF00BF30462B
:1012C00000F0FAF900BF00BF002070BD6468F0E7CD
:1012D00000BF00BF304600F0EFF900BF00BF0020A4
:1012E000F3E700BF00BF304600F0E6F900BF00BFE3
:1012F0000120EAE70FB470B500BF00BF00F0D8F9D5
:10130000054600BF00BF37480068806806998842DC
:1013100012D13448006840683249086000200968EA
:10132000086000BF00BF284600F0C6F900BF00BF3C
:10133000002070BC5DF814FB2A48006844681FE078
:10134000A0680699884210D1D4E90010486060680E
:1013500010B1D4E90001086000BF00BF284600F0CA
:10136000ABF900BF00BF0020E3E7646844B900BFE9
:1013700000BF284600F0A0F900BF00BF0120D8E759
:10138000DEE70FB41CB5044601AA0021144800682A
:1013900004F0C0FA06A8009050211848009B059A56
:1013A00007F0D2FC0020009014480A4908600A485F
:1013B0000B380460012008490B394860002048724E
:1013C000087201221146054806F08AF91CBC5DF836
:1013D00014FB00004000002033040020006800409F
:1013E00038000020300000203C04002034000020A1
:1013F000000402400C0400201804002050040020C7
:1014000010B5002400BF00BF00F052F9044600BF31
:1014100000BF1021A14800F097FE00BF00BF20468A
:1014200000F04AF900BF00BF10BD10B5FFF7E8FF9C
:1014300010BD10B500209A490860FFF726FB10BDCB
:1014400010B5FFF7F6FFFFF7F0FF10BD00BFFEE796
:1014500070B505460C46002614B900BFFFF7F6FF2D
:1014600015B90A20208070BD00BF00BF00F020F930
:10147000064600BF00BF10228849284601F092FDB1
:1014800000BF00BF304600F017F900BF00BF0020CA
:10149000208000BFE7E72DE9F04105460C46002714
:1014A00014B900BFFFF7D2FF1DB90A202080BDE8A4
:1014B000F0811021284601F05DFD0646102E15D260
:1014C00000BF00BF00F0F4F8074600BF00BF1022C5
:1014D0002946724801F066FD00BF00BF384600F0A3
:1014E000EBF800BF00BF0020208002E04FF47A70CC
:1014F000208000BFDBE710B5FFF7DDFA0446204689
:1015000010BD704700B5014611B900BFFFF79EFF3F
:10151000634A106808B1002201E04FF4FA620A80C1
:1015200000BD5F490860704770B50546284600F069
:10153000CAF80446183C204670BD70B505462846DA
:1015400000F0C1F80446103C204670BD70B5054659
:10155000284600F0B8F8044600BF204670BD30B5FC
:1015600002460B460024D2F1FF359C4126D24FF6AD
:10157000FF74D2F1FF359C410FD26FF07F44D2F15E
:10158000FF359C4103D2190E464C605C44E0190CB7
:10159000444C645C04F108003EE0FF24D2F1FF35C6
:1015A0009C4105D2190A3F4C645C04F1100033E001
:1015B00019463C4C645C04F118002DE04FF6FF75B1
:1015C0000024AD1A9C4115D26FF07F450024AD1A5E
:1015D0009C4107D2140E44EA0321324C645C04F1AE
:1015E000200019E0140C44EA03412E4C645C04F121
:1015F000280011E00024D2F1FF059C4107D2140A13
:1016000044EA0361274C645C04F1300004E01146B5
:10161000244C645C04F1380030BD70B504460CB94C
:10162000082070BD204600F051F805462846F8E72E
:1016300070B504460CB9102070BD204600F046F885
:1016400005462846F8E770B504460CB9202070BD61
:10165000204600F03BF805462846F8E72DE9F04320
:1016600004460D46002184EA01006940084302D186
:101670004020BDE8F083E243E843521C40F1000102
:1016800002EA040601EA050730463946FFF767FF1C
:101690008046C8F13F094846EBE70000A00400205F
:1016A000440000207096000872B6704762B670471A
:1016B000EFF3108072B6704780F31088704730BF28
:1016C000704720BF7047B0FA80F0704790FAA0F0E2
:1016D000B0FA80F0704790FAA0F0704710B5B0F102
:1016E000005F0AD3F84CA04207D8440104EB810301
:1016F00003F10852002414600CE0B0F1804F09D3CC
:10170000F24CA04206D8440104EB810303F1844269
:101710000024146010BD10B5B0F1005F0AD3EA4C8C
:10172000A04207D8440104EB810303F108520124CD
:1017300014600CE0B0F1804F09D3E44CA04206D80D
:10174000440104EB810303F184420124146010BDC1
:101750002DE9F04104464FF00008102C6BD2DFE871
:1017600004F0080E0F1014293E090A0B0C11120D7B
:10177000135300BF00BF00BF00BF00BF89E000BF20
:1017800000BF00BF00BF00BF83E000BF00BFFFF786
:101790008FFF804600BF00BFCD48006820F4803036
:1017A000CB49086000BF00BF4046FFF785FF00BF80
:1017B00000BF6EE000BF00BFFFF77AFF804600BFAA
:1017C00000BFC348006820F40030C149086000BF72
:1017D00000BF4046FFF770FF00BF00BF59E000BFE9
:1017E00000BFFFF765FF804600BF00BFB848006834
:1017F00020F48020B649086000BF00BF4046FFF7D4
:101800005BFF00BF00BF44E000BF00BFFFF750FF19
:10181000804600BF00BF4FF0E020006920F00100CB
:101820004FF0E021086100BF00BF4046FFF744FFD2
:1018300000BF00BF2DE04FF0E0204068401C1021A9
:1018400001EB4010C6B2B44222DAA4F11000C11775
:1018500000EBD161C1F34715C11700EBD16149110C
:10186000A0EB4111CFB200BF00BFFFF721FF8046C0
:1018700000BF00BF0120B840A90001F1E021C1F87C
:10188000800100BF00BF4046FFF716FF00BF00BF4A
:1018900000BF00BFBDE8F0812DE9F04104464FF0E4
:1018A0000008102C6BD2DFE804F0080E0F1014298A
:1018B0003E090A0B0C11120D135300BF00BF00BFED
:1018C00000BF00BF89E000BF00BF00BF00BF00BF76
:1018D00083E000BF00BFFFF7EBFE804600BF00BF04
:1018E0007B48006840F480307949086000BF00BF41
:1018F0004046FFF7E1FE00BF00BF6EE000BF00BF43
:10190000FFF7D6FE804600BF00BF7148006840F474
:1019100000306F49086000BF00BF4046FFF7CCFEB3
:1019200000BF00BF59E000BF00BFFFF7C1FE804607
:1019300000BF00BF6648006840F48020644908602A
:1019400000BF00BF4046FFF7B7FE00BF00BF44E046
:1019500000BF00BFFFF7ACFE804600BF00BF4FF0E6
:10196000E020006940F001004FF0E021086100BF75
:1019700000BF4046FFF7A0FE00BF00BF2DE04FF0C4
:10198000E0204068401C102101EB4010C7B2BC426F
:1019900022DAA4F11000C11700EBD161C1F34715A1
:1019A000C11700EBD1614911A0EB4111CEB200BFCC
:1019B00000BFFFF77DFE804600BF00BF0120B040A2
:1019C000A90001F1E021C1F8000100BF00BF4046BD
:1019D000FFF772FE00BF00BF00BF00BFBDE8F0818F
:1019E0002DE9F04104464FF00008102C19D2DFE831
:1019F00004F0080E0F10111516090A0B0C12130D26
:101A0000141700BF00BF00BF00BF00BF37E000BF1A
:101A100000BF00BF00BF00BF00BF00BF00BF00BFCE
:101A20002DE04FF0E0204068401C102101EB4010F9
:101A3000C7B2BC4222DAA4F11000C11700EBD16199
:101A4000C1F34715C11700EBD1614911A0EB41115A
:101A5000CEB200BF00BFFFF72BFE804600BF00BF25
:101A60000120B040A90001F1E021C1F8800200BFCF
:101A700000BF4046FFF720FE00BF00BF00BF00BF11
:101A8000BDE8F0812DE9F05F06460D464FF0000BF2
:101A90002846FFF720FE82464FEA1A65102E71D2C3
:101AA000DFE806F0080E0F10182D43090A0B0C5939
:101AB000710D879E00BF00BF00BF00BF00BFE3E005
:101AC00000BF00BFE0E00000FFFF0F20FFFF0F405E
:101AD00024ED00E000BF00BFFFF7EAFD834600BF32
:101AE00000BFDB48046824F0FF042C43046000BFFF
:101AF00000BF5846FFF7E0FD00BF00BFC4E000BFD5
:101B000000BFFFF7D5FD834600BF00BFD048046883
:101B100024F47F4444EA0524046000BF00BF584613
:101B2000FFF7CAFD00BF00BFAEE000BF00BFFFF778
:101B3000BFFD834600BF00BFC548046824F47F048E
:101B400044EA0544046000BF00BF5846FFF7B4FDF7
:101B500000BF00BF98E000BF00BFFFF7A9FD8346AC
:101B600000BF00BFBA48001D046824F07F4444EA67
:101B70000564046000BF00BF5846FFF79DFD00BF2D
:101B800000BF81E043E000BF00BFFFF791FD834647
:101B900000BF00BFAE480830046824F0FF042C43A7
:101BA000046000BF00BF5846FFF786FD00BF00BFBE
:101BB0006AE000BF00BFFFF77BFD834600BF00BFA8
:101BC000A3480830046824F47F0444EA0544046010
:101BD00000BF00BF5846FFF76FFD00BF00BF53E0D6
:101BE00000BF00BFFFF764FD834600BF00BF9848F9
:101BF0000830046824F07F4444EA0564046000BFB0
:101C000000BF5846FFF758FD00BF00BF3CE04FF053
:101C1000E0204068401C102101EB401000F0FF095B
:101C20004E4530DAA6F11000C11700EB9171C1F3F7
:101C30008707C11700EB91718910A0EB810101F0BA
:101C4000FF0800BF00BFFFF733FD834600BF00BFA2
:101C5000B80000F1E020D0F800444FEAC801FF20AE
:101C6000884084434FEAC80105FA01F00443B800F4
:101C700000F1E020C0F8004400BF00BF5846FFF765
:101C80001BFD00BF00BF00BF00BFBDE8F09F2DE9F6
:101C9000F05F06464FF0000B102E70D2DFE806F022
:101CA000080F1215182A3D090A0B0C495C0D7084A7
:101CB00000BF00BF00BF00BF00BF664CBDE06FF0BB
:101CC0000204BAE06FF00104B7E04FF0FF34B4E073
:101CD00000BF00BFFFF7ECFC834600BF00BF5C48BD
:101CE0000568ECB200BF00BF5846FFF7E5FC00BF37
:101CF00000BFA2E000BF00BFFFF7DAFC834600BFD1
:101D000000BF53480568C5F3072400BF00BF58460D
:101D1000FFF7D2FC00BF00BF8FE000BF00BFFFF79E
:101D2000C7FC834600BF00BF49480568C5F30744A8
:101D300083E000BF00BFFFF7BBFC834600BF00BFCE
:101D40004348001D05682C0E00BF00BF5846FFF732
:101D5000B3FC00BF00BF70E000BF00BFFFF7A8FCEE
:101D6000834600BF00BF3A4808300568ECB200BFA8
:101D700000BF5846FFF7A0FC00BF00BF5DE026E0B3
:101D800000BF00BFFFF794FC834600BF00BF304890
:101D900008300568C5F3074400BF00BF5846FFF789
:101DA0008BFC00BF00BF48E000BF00BFFFF780FC16
:101DB000834600BF00BF2648083005682C0E00BFD0
:101DC00000BF5846FFF778FC00BF00BF35E04FF07A
:101DD000E0204068401C102101EB401000F0FF0A99
:101DE000564528DAA6F11000C11700EB9171C1F336
:101DF0008708C11700EB91718910A0EB810101F0F8
:101E0000FF0900BF00BFFFF753FC834600BF00BFC0
:101E10004FEA880000F1E020D0F8005400BF00BF76
:101E20005846FFF749FC00BF00BF4FEAC90025FA3A
:101E300000F0C4B200E0074C00BF00BF002C04DB80
:101E40002046FFF748FC07463C0E2046BDE8F09FC1
:101E500018ED00E00080FFFF0146412903DB5A290D
:101E600001DC012200E00022012A08D0612903DB05
:101E70007A2901DC012200E00022012A01D101229D
:101E800000E00022104670470146412903DB5A2931
:101E900001DC012200E00022012A08D0612903DBD5
:101EA0007A2901DC012200E00022012A01D101226D
:101EB00000E00022012A08D0302903DB392901DCA7
:101EC000012200E00022012A01D1012200E00022CB
:101ED000104670470146612903DB7A2901DC0122A3
:101EE00000E00022104670470146412903DB5A29D1
:101EF00001DC012200E00022104670470146302933
:101F000003DB392901DC012200E000221046704782
:101F10000146302903DB372901DC012200E00022E1
:101F2000104670470146302901DB392907DD412978
:101F300001DB462903DD612903DB662901DC01227F
:101F400000E00022104670470146202901D00929EF
:101F500001D1012200E000221046704701462029ED
:101F600009D00D2907D00A2905D00C2903D0092949
:101F700001D00B2901D1012200E000221046704758
:101F80000146202903DB7E2901DC012200E000223A
:101F9000104670470146212903DB7E2901DC01221E
:101FA00000E00022104670470146202903DB7E290D
:101FB00001DC012200E00022012A35D1202909D0CC
:101FC0000D2907D00A2905D00C2903D0092901D0F1
:101FD0000B2901D1012200E000222ABB412903DBA9
:101FE0005A2901DC012200E00022012A08D06129DF
:101FF00003DB7A2901DC012200E00022012A01D161
:10200000012200E00022012A08D0302903DB39290F
:1020100001DC012200E00022012A01D1012200E0BE
:1020200000220AB9012200E0002210467047014652
:102030004AB2002A01DB1F2901DD7F2901D10122DB
:1020400000E00022104670470146412903DB5A296F
:1020500001DC012200E00022012A02D101F120026C
:1020600000E00A46D0B270470146612903DB7A29B5
:1020700001DC012200E00022012A02D1A1F12002AC
:1020800000E00A46D0B27047F0B504460B46204641
:10209000FFF7EAFF05461846FFF7E6FF0646B5429A
:1020A00001D1012000E0002007463846F0BD0000C5
:1020B000FD48FE4901600146416000218160C16028
:1020C000016141618161C16101620163C16241627B
:1020D000F7498163C1634FF41051016441640146C3
:1020E000F44A116070472DE9F04103460C4617464B
:1020F0000FB9BDE8F08103B9FBE70025002202E03B
:102100002D022543521C042AFAD3384603F0030C4F
:102110001946BCF1000F08D0624603E001F8014BFC
:10212000401E521C08B1042AF8D30E4601E020C616
:10213000001F0428FBD2314602E001F8014B401E8B
:102140000028FAD100BFD4E730B505460C46224638
:1021500000212846FFF7C7FF30BD2DE9F04F85B0BD
:10216000074688469146B9F1000F02D105B0BDE897
:10217000F08F07B9FAE7B8F1000F00D1F6E746464D
:102180003D46AE4205D94A464146384601F086FBF7
:10219000ECE74C463819451E08EB0400461EA81B08
:1021A00004900498042834D305F00300029006F04C
:1021B00003010191DDE90110884201D1012000E015
:1021C000002000900098012823D10298032810D005
:1021D000029840B2039008E016F8010905F80109D9
:1021E000641E0398401E40B2039014B10398002867
:1021F000F2DAA5F1030AA6F1030B04E05BF8040987
:102200004AF80409241F042CF8D20AF103050BF143
:10221000030604E016F8010905F80109641E002C04
:10222000F8D100BFA2E72DE9F84F80468946154650
:1022300015B90120BDE8F88FB8F1000F01D10020D9
:10224000F8E7B9F1000F01D10020F3E70124294696
:1022500008EB050209EB050302F0030C03F0030B86
:10226000DC4501D1012000E0002000900098012809
:1022700029D1BCF1000F12D0E2460AE0521E5B1ECB
:10228000107893F800E0704500D00024491EAAF1B0
:10229000010A012C03D111B1BAF1000FEED1012CCA
:1022A00011D116461F4608E0361F3F1F3068D7F889
:1022B00000E0704500D00024091F012C01D1042941
:1022C000F2D232463B4608E0521E5B1E107893F86D
:1022D00000E0704500D00024491E012C01D10029E6
:1022E000F2D12046A6E7F0B503460D461646DA6B56
:1022F000B2FBF6F006FB102CBCF1000F02D0A6EBEF
:102300000C0400E000246119586C884201D20020BE
:10231000F0BDA14201D3A94201D20020F8E757182D
:10232000974201D20020F3E72244DF63586C401A41
:1023300058641046ECE72DE9F04F81468C461C4668
:10234000B9FBF4F004FB109BBBF1000F02D0A4EB2F
:102350000B0600E00026B2FBF4F004FB102BBBF1EF
:10236000000F02D0A4EB0B0300E00023D018ACF167
:10237000010E00FB0E60871806EB0208B04501D382
:10238000904502D20020BDE8F08FBCF1010F22D9A8
:10239000D5189D4201D3954201D20020F3E7ACF15C
:1023A000010000FB05F1A94203D3994201D39142F8
:1023B00001D20020E7E701EB020A8A4501D39245EA
:1023C00001D20020DFE7474503D38F4201D35745B1
:1023D00001D20020D7E73846D5E72DE9FE4F074662
:1023E000884615461C46002000901CB900BFFFF728
:1023F0002DF800BF0DB901AD00BF002028602FB936
:1024000042F2747020800020BDE8FE8FB8F1000F0A
:1024100004D142F2757020800020F5E7DFF8889043
:1024200000BF00BFFFF744F9009000BF00BFD9F81C
:102430003C000290D9F844B043463A460121029844
:10244000FFF779FF064666B900BF00BF0098FFF7A7
:1024500033F900BF00BF2F6042F2E37020800020FC
:10246000D2E75E450ED900BF00BF0098FFF724F900
:1024700000BF00BFA6EB0B00286042F2E270208094
:102480000020C1E7424639464846FFF72CFF824606
:10249000BAF1000F15D100BF00BF0098FFF70CF98B
:1024A00000BF00BF2E6007E0B00400204845415047
:1024B000F80400204800002042F2E2702080002052
:1024C000A2E700BF00BF0098FFF7F6F800BF00BF0B
:1024D00042F210702080504696E72DE9FC5F0646D8
:1024E0000D461446002000901CB900BFFEF7AEFF59
:1024F00000BF2DB942F2757020800020BDE8FC9F1E
:10250000B5F5805F04D942F2757020800020F5E7B0
:1025100026B942F2117020800020EFE700BF00BF13
:10252000FFF7C6F8009000BF00BFFE4930680844BE
:1025300040B1FD49084418B1FC49084408B900BF3E
:102540000CE000BF00BF00BF0098FFF7B5F800BF68
:1025500000BF42F2887020800020CFE700BFD6F88D
:102560000490D9F8380008B1484600E0F0488246A7
:10257000DAF84470DAF83CB000BF00BF0098FFF70B
:102580009BF800BF00BF012D0DD9BBFBF5F005FB8B
:1025900010B8B8F1000F02D0A5EB080000E0002051
:1025A000019001983F1A42F2107020803846A5E74A
:1025B00070B504460D462A462146DD48FFF78DFFDB
:1025C0000646304670BD70B504460D461DB900BFC5
:1025D000FEF73CFF00BF1CB942F21170288070BDAD
:1025E000D0484042206000206060A060E060206130
:1025F0006061A061E0612062A06260632063E062CC
:102600006062A063E0632064606442F2107028801E
:1026100000BFE4E72DE9FF4F91B00446DDE92095C6
:10262000002000901DB900BFFEF710FF00BFB9F1F8
:10263000000F02D10DF1100900BF0020C9F8000001
:1026400029462046FFF7BFFF288842F210718842D2
:1026500002D015B0BDE8F08F129828B1139818B9C0
:1026600042F27E702880F4E7149818B942F2927012
:102670002880EEE71E9818B942F293702880E8E7A8
:102680001F9818B942F294702880E2E7A9480068C0
:1026900018B942F2E7702880DBE7A54810904FF0A8
:1026A000000A00BF00BFFFF703F8009000BF00BFA3
:1026B000129800285BD1109E109E0E96109E3746F1
:1026C000109EF06B0B9004231A4614990B98FFF799
:1026D00032FE0390039850B900BF00BF0098FEF788
:1026E000EBFF00BF00BF42F2E3702880B1E703991F
:1026F0000B9808440A90DDE91E2314990A98FFF705
:102700001AFE8346BBF1000F0AD100BF00BF00983C
:10271000FEF7D2FF00BF00BF42F2E370288098E7C7
:10272000039800EB0B0A0398824501D3DA450AD2DD
:1027300000BF00BF0098FEF7BFFF00BF00BF42F21E
:10274000E370288085E71098D0F84480C2457DD991
:1027500000BF00BF0098FEF7AFFF00BF00BFAAEBAD
:102760000800C9F8000042F2E270288071E7129870
:102770000990DDE912010844401E0890DDE90810C7
:1027800081420AD200BF00BF0098FEF795FF00BF4C
:1027900000BF42F2977028805BE7002600200E9071
:1027A000644807683AE0B96B1298814205D1396CE8
:1027B0001398814201D13E4632E0B86B0790396CE4
:1027C000B86B0844401E0690DDE90701814200D243
:1027D00026E007990998884203D8DDE90710884266
:1027E0000FD207990998884203D30699089888421E
:1027F00007D90699099888420ED806990898884200
:102800000AD300BF00BF0098FEF756FF00BF00BF0D
:1028100042F27F7028801CE70E97FF68002FC2D11C
:1028200000BF46B926461298A0631298E063139839
:102830002064139860641098C06B0B9004231A46B0
:1028400014990B98FFF777FD039000E04CE0039894
:1028500050B900BF00BF0098FEF72EFF00BF00BFB9
:1028600042F2E3702880F4E61098D0F84480039890
:1028700040450FD900BF00BF0098FEF71DFF00BF05
:1028800000BF0398A0EB0800C9F8000042F2E27014
:102890002880DEE6F06B0A90DDE91E2314990A9881
:1028A000FFF749FD8346BBF1000F0AD100BF00BF0F
:1028B0000098FEF701FF00BF00BF42F2D9702880E8
:1028C000C7E6D6F84480C3450ED900BF00BF0098C4
:1028D000FEF7F2FE00BF00BFABEB0800C9F8000036
:1028E00042F2D8702880B4E6149880000290042246
:1028F00002991098FFF7F7FC0D900D9878BB10988F
:10290000D0F8448000BF00BF0098FEF7D5FE00BF9E
:1029100000BF129898B9C2450ED9AAEB0800C9F8B1
:10292000000018E0B2B0B1BAFEFFFEF8080A0EFCD3
:10293000B004002048000020C9F800A00BE0029875
:10294000404505D90298A0EB0800C9F8000002E054
:102950000298C9F8000042F2E270288079E6FFE7A9
:102960000020019032E03046DDE91E12FFF7BBFC8B
:102970000C900C9810BBF06B0A90D6F8448000BF06
:1029800000BF0098FEF798FE00BF00BF01991498A1
:10299000401A0590DDE91E2305990A98FFF7CBFC44
:1029A0008246C24504D9AAEB0800C9F8000001E03C
:1029B000C9F800A042F2D87028804AE6019ADDE901
:1029C0000C0141F822000198401C019014990198D3
:1029D0008842C8D3A6420CD10E98A060E7600E983A
:1029E00010B10E98C46001E0FE4804605FB1BC60A5
:1029F00009E070690F9026610F98606174610F980B
:102A000008B10F980461F848206066600A98A061D8
:102A10000A985844401EE0610D982062C4F828B01E
:102A20001F9860631E9820631498E0621498606297
:102A300000BF00BF0098FEF73FFE00BF00BF42F29C
:102A40001070288000BF04E62DE9F04105460C46D1
:102A500000271CB900BFFEF7F9FC00BF2DB942F2F8
:102A6000117020800020BDE8F08100BF00BFFEF79C
:102A70001FFE074600BF00BFDC492868084440B17C
:102A8000DB49084418B1DB49084408B902E00DE00D
:102A900000BF00BF00BF00BF3846FEF70DFE00BFFD
:102AA00000BF42F2887020800020DCE700BF6E6A21
:102AB00000BF00BF3846FEF7FFFD00BF00BF42F277
:102AC000107020803046CEE72DE9F04104460E46D6
:102AD00015464FF000081DB900BFFEF7B7FC00BF58
:102AE0002CB942F2117028800020BDE8F08126B98F
:102AF00042F2937028800020F7E700BF00BFFEF786
:102B0000D7FD804600BF00BFB749206888420BD080
:102B100000BF00BF4046FEF7CFFD00BF00BF42F23E
:102B2000887028800020E0E7206BB0420BD200BF05
:102B300000BF4046FEF7C0FD00BF00BF42F29370E9
:102B400028800020D1E7606A58B900BF00BF404626
:102B5000FEF7B2FD00BF00BF42F2DE702880002009
:102B6000C3E7E16A606A88420BD900BF00BF4046F4
:102B7000FEF7A2FD00BF00BF42F295702880002042
:102B8000B3E7606A401E6062D4E9080150F8217022
:102B900000BF00BF4046FEF78FFD00BF00BF42F2FE
:102BA000107028803846A0E72DE9F04704460F460C
:102BB00015464FF000091DB900BFFEF747FC00BFE6
:102BC0002CB942F2117028800020BDE8F08700BFC8
:102BD00000BFFEF76DFD814600BF00BF824920683F
:102BE00088420BD000BF00BF4846FEF765FD00BF1E
:102BF00000BF42F2887028800020E6E7E16A606A40
:102C000088420BD300BF00BF4846FEF755FD00BF0A
:102C100000BF42F2957028800020D6E7E06AC01B12
:102C2000461EE06AB0420BD800BF00BF4846FEF720
:102C300043FD00BF00BF42F2957028800020C4E72A
:102C4000606AB0420BD900BF00BF4846FEF734FDB2
:102C500000BF00BF42F2957028800020B5E7206ACF
:102C600050F8268000BF00BF4846FEF725FD00BF94
:102C700000BF42F2107028804046A6E72DE9F04FD1
:102C800002460C469569D2F81CB0AC4201D35C45B3
:102C900002D90020BDE8F08F536BB5FBF3F003FBC6
:102CA000105111B1A3EB010C01E04FF0000C176BB8
:102CB000B7FBF3F003FB107109B15E1A00E00026C8
:102CC00005EB0C08A4EB080A07EB0609BAFBF9F0C0
:102CD00009FB10A008B9012000E0002086467046DC
:102CE000D8E72DE9F04704460F4615464FF0000A95
:102CF0001DB900BFFEF7AAFB00BF24B942F2117054
:102D00002880BDE8F0871FB942F211702880F8E7EB
:102D100000BF00BFFEF7CCFC824600BF00BF3249B7
:102D2000206888420AD000BF00BF5046FEF7C4FCAE
:102D300000BF00BF42F288702880E2E73946204693
:102D4000FFF79CFF8046B8F1010F0AD000BF00BF1B
:102D50005046FEF7B1FC00BF00BF42F297702880DA
:102D6000CFE7002610E0206A50F82600B8420AD1CA
:102D700000BF00BF5046FEF79FFC00BF00BF42F2FD
:102D800098702880BDE7761C606AB042EBD8E16A93
:102D9000606A88420AD300BF00BF5046FEF78CFC31
:102DA00000BF00BF42F2DD702880AAE74FF00008A4
:102DB000666A08E0206A50F82690B94502D14FF0C3
:102DC000010803E0761CE06AB042F3D800BFB8F116
:102DD000010F11D1D4E9080150F82100216A41F80E
:102DE000260014E048000020504F4F4CB2B0B1BA5A
:102DF000FEFFFEF8080A0EFC00BF00BF5046FEF7BB
:102E00005BFC00BF00BF42F28870288079E7D4E9FC
:102E1000080140F82170606A401C606200BF00BF7A
:102E20005046FEF749FC00BF00BF42F210702880F8
:102E300000BF66E72DE9F84F04460F46154600200F
:102E400000904FF0FF3B1DB900BFFEF7FFFA00BF37
:102E50002CB942F2117028805846BDE8F88F27B986
:102E600042F2117028805846F7E700BF00BFFEF716
:102E70001FFC009000BF00BF3D49206888420BD076
:102E800000BF00BF0098FEF717FC00BF00BF42F272
:102E9000887028805846E0E739462046FFF7EEFE66
:102EA0008046B8F1010F0BD000BF00BF0098FEF7BD
:102EB00003FC00BF00BF42F2977028805846CCE761
:102EC000002611E0206A50F82600B8420BD100BF5E
:102ED00000BF0098FEF7F0FB00BF00BF42F2987001
:102EE00028805846B9E7761C606AB042EAD8E16AA1
:102EF000606A88420BD300BF00BF0098FEF7DCFB7E
:102F000000BF00BF42F2DD7028805846A5E74FF0B1
:102F10000008666A08E0206A50F82690B94502D198
:102F20004FF0010803E0761CE06AB042F3D800BF1E
:102F3000B8F1010F0FD1E06A401EA0EB060A00BFF6
:102F400000BF0098FEF7B8FB00BF00BF42F2107050
:102F50002880504681E700BF00BF0098FEF7ACFB19
:102F600000BF00BF42F288702880584675E7000015
:102F7000504F4F4C10B502460B461146002001E061
:102F8000491C401C19B10C780CB19842F8D310BD03
:102F900030B504464FF0FF312046FFF7EBFF054602
:102FA000284630BD70B504460D4616460CB90020C3
:102FB00070BD0DB90020FBE721462A46002304E03E
:102FC00010780870491C521C5B1C21B11AB1107892
:102FD00008B1B342F4D301B10AB90020E8E7B34223
:102FE00001D2002008702046E2E770B504460D4685
:102FF0004FF0FF3229462046FFF7D4FF0646304601
:1030000070BD70B503460C4615460BB9002070BD67
:103010000CB90020FBE70DB91846F8E7194600E0A7
:10302000491C11B108780028FAD109B90020EEE74F
:103030002246002604E010780870491C521C761CB9
:1030400021B11AB1107808B1AE42F4D301B10AB976
:103050000020DCE7002008701846D8E770B5044669
:103060000D464FF0FF3229462046FFF7CAFF0646BD
:10307000304670BD2DE9F04305460B469446BCF141
:10308000000F02D10020BDE8F08335B90BB9002054
:10309000F9E7187842421046F5E713B92A78104646
:1030A000F1E729461C460F4626467F1C761C4FF04A
:1030B000000805E0491C641C7F1C761C08F101080F
:1030C000087894F80090484505D1087818B117B1F0
:1030D0000EB1E045EED3E04501D10020D3E70878FA
:1030E00094F80090484505D0087894F80090A0EB3B
:1030F00009020BE0087808B9002207E02FB90EB9E1
:10310000002203E03078424200E03A781046BAE705
:1031100070B504460D464FF0FF3229462046FFF7B2
:10312000A9FF0646304670BD2DE9F74F82B08046B4
:103130000E46049818B9002005B0BDE8F08FB8F12C
:10314000000F09D10EB90020F6E73078FEF77CFFBA
:1031500007467C422046EFE73EB998F80000FEF7AC
:1031600073FF05462C462046E6E7C146B246C846F0
:10317000C3465646CDF804A0D8460BF1010B019E7C
:10318000701C0190C84699F80000FEF75DFF0546E7
:1031900056469AF80000FEF757FF074600200090B9
:1031A00015E009F101090AF1010A0BF1010B01987F
:1031B000401C01900098401C009099F80000FEF718
:1031C00043FF05469AF80000FEF73EFF0746BD4262
:1031D0000BD199F8000040B1BBF1000F05D0019868
:1031E00018B1049900988842DBD30499009888426A
:1031F00001D10020A0E7BD4201D0EC1B16E00DB9C3
:10320000002413E0BBF1000F0AD1019808B9002493
:103210000CE001990878FEF717FF07467C4205E0AD
:103220009BF80000FEF710FF05462C46204683E77A
:1032300070B504460D464FF0FF3229462046FFF791
:1032400073FF0646304670BD30B504460B46154642
:103250000CB9002030BD0BB90020FBE7214600224D
:1032600001E0491C521C31B1087820B10878A8420D
:1032700001D09A42F5D309B90020EBE79A4201D375
:103280000020E7E70878A84201D00020E2E70846DE
:10329000E0E770B505460C4622464FF0FF31284660
:1032A000FFF7D2FF0646304670BD2DE9F0430546D4
:1032B0000E46174615B90020BDE8F0830EB9002070
:1032C000FAE72C46A6F1010949462046FFF752FECF
:1032D000804644440CB90020EEE700E0641EAC4296
:1032E00002D02078B842F9D12078B84201D000202D
:1032F000E2E72046E0E770B505460C4622464FF06F
:10330000FF312846FFF7D1FF0646304670BD70B545
:1033100004460D4616460CB9002070BD0BB90020BE
:10332000FBE721461A4605E00878A84200D10E7056
:10333000491C521E19B1087808B1002AF4D1204660
:10334000EBE7F0B504460D4616464FF0FF33324624
:1033500029462046FFF7DBFF07463846F0BD2DE93A
:10336000FF4F06460F4615461EB9002004B0BDE8C3
:10337000F08F0FB90020F9E70DB90020F6E7681CBF
:1033800000B101E04FF0FF30039029463046FFF7CF
:10339000F1FD804638460399FFF7ECFD04460CB971
:1033A0003046E3E7444501D90020DFE706EB080B90
:1033B000BBF1000F01D10020D8E707EB040BBBF1F4
:1033C000000F01D10020D1E7A8EB040002904FF0DC
:1033D00000090020019000BF06EB09000090224682
:1033E00039460098FFF746FE8246BAF1000F01D138
:1033F000012000E00020019009F10109019810B9B5
:1034000002988145E8D9BAF1000F01D00020ADE75C
:103410000098ABE770B504460D464FF0FF322946E1
:103420002046FFF79CFF0646304670BD2DE9FF4F52
:103430008DB00F4615461A9E1D9818B9002011B080
:10344000BDE8F08F00200390012F01DA01200390E6
:10345000022D01D3242D01D90120039096B33046CB
:10346000FEF78EFD02900298012802D00120039001
:1034700028E0302E26D0A6F13000C0B207901B986D
:10348000012804D0A6F14100C0B2069003E0A6F1E5
:103490006100C0B206900A2D02D80798A84209DB45
:1034A0000A2D09D907980A2804D3A5F10A0006991C
:1034B000884201D9012000E00020059005980128EC
:1034C00000D103901D9C0398002846D1DDF834A05C
:1034D000DDF834A0CDF830A001200B9007E00B9868
:1034E000401CC0B20B900C98B0FBF5F00C900C98FF
:1034F000A842F4D21098012800D100E000200990E1
:103500000B9909980844B84225DC002001900B98DB
:10351000B84201DA0B9800E038460A903EB1B8464E
:103520000A98391A0998081AC0B2089006E0DDE92D
:103530000910084400F0FF080020089008980028AF
:1035400006DD302E01D1012000E00020049004E0CF
:103550000020049001E001200390039800B1B846D8
:1035600044441C9808B100202070641E4FF00009EC
:1035700041E00398A8BBBAF1000F02D1B9F1000FE6
:103580001CD1BAFBF5F005FB10A000F0FF0BBBF15E
:103590000A0F04D20BF1300004F801090BE01B986C
:1035A000012804D00BF1370004F8010903E00BF106
:1035B000570004F80109BAFBF5FA1AE0109801283F
:1035C00010D1049808B9019828B1049850B1A8F115
:1035D0000100484506D12D2004F801090120019081
:1035E00007E003E02EB104F8016902E03F2004F88F
:1035F000010909F10109C145BBD3039808B10020B5
:103600001DE71D981BE72DE9FF5F05460E4617468F
:103610001C46DDE90F9ADDF8388000233A46314632
:1036200028468DE81007FFF701FF8346584604B08F
:10363000BDE8F09F2DE9FF4F85B0044689461F463F
:10364000DDE913AB002C02DA6542012601E02546D4
:10365000002612983346CDE902ABCDE90070494609
:103660002846079AFFF7E2FE8046404609B0BDE8CB
:10367000F08F2DE9FF4F8BB0064689461546B9F10C
:10368000000F02D10DF1240900BFC9F8006018989D
:1036900010B907A8189000BF0021189801701EB932
:1036A00000200FB0BDE8F08F012D01D0242D01D9ED
:1036B0000020F6E734462078FEF750FC039004E043
:1036C000641C2078FEF74AFC039003980128F7D089
:1036D00020782B2802D02D280BD103E0641C4FF05A
:1036E000000B09E00E98012800D1641C4FF0010B7B
:1036F00002E04FF0000B00BF00BF0A9425B1082D77
:103700001CD0102D36D11EE02078302814D1641C36
:103710002078582802D078280BD100BF1025677870
:103720003846FEF7FFFB8246BAF1010F00D1641C58
:1037300001E0082500BF00E00A251CE020783028C1
:1037400000D1641C17E02078302812D1641C207846
:10375000582802D078280AD100BF67783846FEF78B
:10376000E1FB8246BAF1010F00D1641C00E000BF0A
:1037700000BF00E000BF00BF4FF000080020029033
:10378000019040E027783846FEF77EFB05900598CB
:10379000012836D13846FEF7B1FB0690069801287D
:1037A00004D1A7F13000C0B208900FE03846FEF710
:1037B00091FB04900498012804D1A7F15700C0B2EE
:1037C000089003E0A7F13700C0B208900898A8421B
:1037D00014DA029880B9304850F82500404509D3E2
:1037E00008FB05F8089880440898804504D2012019
:1037F000029001E001200290641C04E0012001908D
:1038000001E00120019001980028BBD00298012816
:1038100001D14FF0FF380A98844202D0C9F8004025
:1038200001E0C9F80060189880F800B0404638E719
:10383000F8B504460D461646002003463246294692
:1038400000902046FFF715FF07463846F8BD2DE9E2
:10385000FC4105460E46174601A801233A4631466B
:1038600000902846FFF705FF04469DF8040040B984
:10387000B4F1004F02D36FF0004000E020468046D4
:1038800007E0B4F1004F02D34FF0004000E0604287
:1038900080464046BDE8FC8170970008002800D1B2
:1038A0007047002900D17047002A00D170472DE9E8
:1038B000F81F00F0030301F00304A34211D1C3F188
:1038C000040303F00303012B1DD3012A00D2F2E00D
:1038D00011F8014B00F8014BA3F10103A2F1010221
:1038E000F1E700F0010301F00104A34200D094E0ED
:1038F000012B44D311F8014B00F8014BA3F1010354
:10390000A2F10102F4E7B2F5B47F26D3B1E8F81FC3
:10391000A0E8F81FB1E8F81FA0E8F81FB1E8F81F09
:10392000A0E8F81FB1E8F81FA0E8F81FB1E8F81FF9
:10393000A0E8F81FB1E8F81FA0E8F81FB1E8F81FE9
:10394000A0E8F81FB1E8F81FA0E8F81FB1E8F81FD9
:10395000A0E8F81FA2F5B472D5E7282A06D3B1E88B
:10396000F81FA0E8F81FA2F12802F6E7042A06D300
:1039700051F8043B40F8043BA2F10402F6E7202A88
:1039800042D331F8023B20F8023B31F8023B20F8E9
:10399000023B31F8023B20F8023B31F8023B20F8B1
:1039A000023B31F8023B20F8023B31F8023B20F8A1
:1039B000023B31F8023B20F8023B31F8023B20F891
:1039C000023B31F8023B20F8023B31F8023B20F881
:1039D000023B31F8023B20F8023B31F8023B20F871
:1039E000023B31F8023B20F8023B31F8023B20F861
:1039F000023B31F8023B20F8023B31F8023B20F851
:103A0000023BA2F12002BAE7022A06D331F8023BB8
:103A100020F8023BA2F10202F6E7102A42D311F885
:103A2000013B00F8013B11F8013B00F8013B11F8A4
:103A3000013B00F8013B11F8013B00F8013B11F894
:103A4000013B00F8013B11F8013B00F8013B11F884
:103A5000013B00F8013B11F8013B00F8013B11F874
:103A6000013B00F8013B11F8013B00F8013B11F864
:103A7000013B00F8013B11F8013B00F8013B11F854
:103A8000013B00F8013B11F8013B00F8013B11F844
:103A9000013B00F8013B11F8013B00F8013BA2F1AA
:103AA0001002BAE7012A06D311F8013B00F8013BE6
:103AB000A2F10102F6E7BDE8F81F704701460020B9
:103AC00002E0491C421CD0B20A78002AF9D17047A2
:103AD0002DE9F04105460E4614460027FB480078C4
:103AE00020B1112020700020BDE8F0812878012845
:103AF00008D0022807D0032802D0042804D100E00F
:103B000000BF00BF00BF03E0012020700020EBE7F2
:103B100000BF03F077F80746686930603068FFF748
:103B2000CDFF8046384603F071F8002020704046F3
:103B3000DAE72DE9F04105460E4614460027E34832
:103B4000007818B112202070BDE8F0812878012893
:103B500008D0022807D0032802D0042804D100E0AE
:103B600000BF00BF00BF02E001202070ECE700BFF3
:103B700003F048F807466E61384603F047F8002026
:103B8000207000BFE0E7F0B5024612F8384F957894
:103B90005678383A0B4618680FE000F10B073F5D86
:103BA000B74300F10B0C0CF8047067463F5D17B982
:103BB000877AAF4387721B1D18680028EDD1F0BDCE
:103BC000C349C44A1278885CC349095CC04A515C45
:103BD00001EBC001C14A1170704710B5002403F019
:103BE00011F80446B9480078F8B9BD480078E0B942
:103BF000FFF7E6FFBB48B949097850F82100BA49F8
:103C00000860B6480078B949097888420DD0B648AE
:103C10000068C06B401CB4490968C863B4480068B8
:103C2000401CB349086003F008F8204602F0EEFF9C
:103C300010BD70B501460024AE4D2D68EC61AD4C51
:103C4000246821620B4618681BE0AA4C246894F88B
:103C5000385000F10B04645DA64D2D6895F839507D
:103C60002C43A44D2D6895F8386000F10B05AC5538
:103C7000847AA04D2D6895F83A502C4384721B1D10
:103C800018680028E1D19B4C246894F83820924CA5
:103C9000A45C984D2D6895F83950AC438E4DAC54CA
:103CA0002C46A45C44B9934C246894F83A50894C4F
:103CB0002478AC43874D2C7070BD2DE9FF4F83B045
:103CC00081460E461546DDF84080002000903060A9
:103CD000CA46DAF8004018E02078062807D2DFE864
:103CE00000F00604050307080AE009E008E000BF49
:103CF00000BF012088F80000002007B0BDE8F08F69
:103D000000BF0AF1040ADAF80040002CE4D16F4841
:103D1000007820B1022088F800000020EDE770480C
:103D2000007820B10D2088F800000020E5E7002091
:103D3000029001908346CA46DAF8004002F062FF22
:103D4000009057E02078062843D2DFE800F04215C3
:103D500026034344208960B12089401E208110C67B
:103D600001200290002001C50198401C80B2019002
:103D700001E04BF0010B38E0606858B1606801C5A4
:103D80000020606010C6012002900198401C80B2A3
:103D9000019001E04BF0020B27E06768F88AA8B1B8
:103DA0003969081D3861086801C5B96838698842F1
:103DB00001D178683861F88A401EF88210C6012067
:103DC00002900198401C80B2019001E04BF0040B7E
:103DD0000BE000BF00BF009802F018FF0020306029
:103DE000012088F80000019887E700BF0AF1040A63
:103DF000DAF80040002CA5D10298012809D1002052
:103E00003060009802F002FF002088F8000001985E
:103E100073E73848006890F834004BF0800108439D
:103E20003449096881F8340000203249096881F872
:103E3000350030490698096808634846FFF7F9FEDF
:103E4000009802F0E3FEFFF7C8FE02F0DBFE0090F0
:103E50002848006890F8350020B1012819D00228C0
:103E600016D100E000BF23480068C4692CB110C619
:103E7000002030600120019009E001201D490968FF
:103E800081F8350049461B480068FFF77CFE06E0D4
:103E900000BF494617480068FFF775FE00BF00BF26
:103EA0001448006890F8350020B1012842D002285B
:103EB0003FD138E02078062824D2DFE800F0231D27
:103EC0001E032425002001C528E000006500002015
:103ED00004980008690000206A00002068000020A3
:103EE00066000020C8340020800000206700002009
:103EF0004C0000207800002000BFF9480068406AAC
:103F000001C50BE000BF00BF009802F07FFE00205B
:103F10003060012088F800000198EEE600BF002024
:103F200088F800000CE0002001C50E2088F8000091
:103F300006E000BF002001C50A2088F8000000BF8D
:103F400000BF0020E649096881F83400E4490968A7
:103F500081F83500E2490968C861E14909680862E9
:103F6000DF4909684862009802F050FE0198C4E6F3
:103F70007CB5002514E06946284602F006F906469D
:103F800066B9D84850F8254044B1012C06D0D4E990
:103F9000020100EB8100A0640198E064681CC5B2D6
:103FA0003F2DE8D97CBD00BF00BF02E0C82002F071
:103FB00013FACD4800780028F8D0CC480068642176
:103FC000B0FBF1F0C94908600846006828B9002034
:103FD000C7490870FF2002F018F902F013FE0446EA
:103FE000C248006864214843C2490860204602F084
:103FF0000DFE00BF02F006FE0446BE480068BE4942
:1040000008600020BB490860204602F0FFFDBA4866
:104010000068B6490968B0FBF1F0C0F16400B4492A
:10402000087002F06DFEFFF7A3FF642002F0D4F9E0
:10403000E0E700B587B0032000218022AF4BCDE937
:104040000132CDE903104FF6FE703E23AC4A0090DA
:10405000AFF2AD0001F0ABFE06AAAAA13E2002F02D
:1040600016F807B000BD002400BF00BF02F0CAFD73
:104070000446A0480068401C9E490860204602F0A3
:10408000C5FD02F033FEF1E700B587B00320002143
:104090008022A04BCDE90132CDE903104FF6FF702D
:1040A0003F239D4A0090AFF2410001F080FE06AA36
:1040B0009AA13F2001F0EBFF07B000BD04E0002211
:1040C00000F8012B4A1E91B20029F8D1704770B553
:1040D0004FF4F0619548FFF7F1FF002411E0601CF8
:1040E00085B204EB4400914901EBC00305EB4500A8
:1040F00001EBC006002018705E608DA05861601C46
:1041000084B24F2CEBD304EB4400884901EBC0038D
:1041100000201870586086A05861084685490860DC
:1041200070BD70B54FF4F2618348FFF7C7FF4FF4DD
:1041300080716C48FFF7C2FF002413E0601CC5B219
:1041400004EB440000EBC4007B4901EBC00305EB2A
:10415000450000EBC50001EBC0065E6174A0186568
:10416000601CC4B2152CE9D304EB440000EBC4007E
:10417000714901EBC003002058616DA01865002053
:104180006E4908606C486E49086070BD00216D4A38
:104190001170002004E000216B4A1154411CC8B288
:1041A0000828F8D30021694A1170694A1170694AD8
:1041B00011604B4A116070470020674908606749E9
:1041C000087067490870674908706749087067494F
:1041D0000860484908604849086044490860424905
:1041E000087063490870704710B502F063FDFFF76F
:1041F000E3FFFFF7CBFFFFF794FFFFF768FF00F047
:10420000C7FE00F0B8FF01F0BAFAFFF73DFFFFF775
:1042100010FF02F06DFC02F05CFD02F011FE10BD1B
:1042200051480078012808D14C480078FF2804D272
:104230004A480078401C49490870704710B500246E
:1042400049480078012830D102F0DCFC044643489C
:10425000007820B141480078401E404908703F482E
:104260000078F8B93E480078E0B9FFF7A9FC1D488E
:104270003749097850F821003649086034480078F9
:104280003249097888420DD032480068C06B401C22
:1042900030490968C86335480068401C33490860E4
:1042A00002F0D0FC204602F0B1FC10BD10B5002495
:1042B0002D480078012811D102F0A4FC04462748BB
:1042C000007840B926480078FF2804D224480078B6
:1042D000401C23490870204602F098FC10BD0000E5
:1042E00078000020C8340020640000205C0000201A
:1042F000580000207400002060000020C83000201A
:10430000C432002075432F4F532D49492053746107
:1043100074000000C8320020C434002075432F4FC1
:10432000532D49492049646C65000000F82800209D
:104330003F00000050000020C8350020840000200D
:104340007C000020690000206A0000206700002037
:1043500068000020800000209800002065000020F8
:104360006600002073000020720000204C00002036
:104370009400002010B50024FE480078012821D1C7
:1043800002F040FC0446FC480078C0B9FB480078C5
:1043900088B1FA480078401EF8490870084600784D
:1043A00028B9204602F032FCFFF717FC0AE020464D
:1043B00002F02CFC06E0204602F028FC02E0204639
:1043C00002F024FC10BD10B5EA48007890B9FFF760
:1043D000F7FBEB480078EB490870EB48E8490978AF
:1043E00050F82100E949086008460068E84908607B
:1043F00002F00FFC10BD10B50024022001F0ECFF0C
:1044000002F000FC04460020E2490860204602F069
:10441000FDFB642001F0E0FF02F0F4FB0446DD4800
:104420000068DD4908600120DC490870204602F080
:10443000EDFB10BD70B5002602F0BCFC02F0E2FB03
:104440000646D7480068401CD5490860304602F04F
:10445000DDFBC8480078012853D1D248007820B14C
:10446000012804D0022809D103E001250BE0002532
:1044700009E001250120CB49087004E00125002056
:10448000C849087000BF00BF05B970BDC6480468C0
:1044900033E002F0B7FB0646206B50B3206B401EA2
:1044A0002063206B28BB94F8340000F0370040B143
:1044B00014F8340F00F0C800207001206070343C04
:1044C00002E0002084F8350094F8340000F0080081
:1044D00078B93834A078B54909780843B3490870E9
:1044E0002078B349085C6178084314F83819B04A59
:1044F00050546469304602F089FB94F836003F2836
:10450000C7D100BFC1E747F217207047704710B509
:1045100090F8382001F10B039B5C90F83940A343DD
:1045200001F10B04A35423469B5C23B98B7A90F8CA
:104530003A40A3438B7210BD2DE9F04F05460F465C
:1045400090469946A87A9B490E5C05F10B00805D68
:1045500011F800B00BEBC60000F0FF0A8A4850F8D3
:104560002A4000202434E0602760207C20EA0800F4
:10457000207484F81190207C243C00F0080068B975
:1045800094F83A00894909780843884908708848AE
:10459000805D94F83910084385498855294620469E
:1045A000FFF7B5FF206A20B12046216AFFF7EBFA3A
:1045B000E5615046BDE8F08F10B5754A1268D061CC
:1045C000734A126892F8383000F10B02D25C704BDB
:1045D0001B6893F839301A436D4B1B6893F83840C9
:1045E00000F10B031A55827A694B1B6893F83A3035
:1045F0001A438272664A126892F838106C4A525C0A
:10460000634B1B6893F839309A43694B5A541A46E6
:10461000525C42B95E4A126892F83A30634A1278A4
:104620009A43624B1A7010BD014600228A72002024
:1046300005E0002301F10B021354421CD0B20828FC
:10464000F7D3704705E011F8013B00F8013B531E1A
:104650009AB2002AF7D170472DE9F84F05460F4668
:1046600090469946DDE90AAB0020009002F0CAFAB4
:10467000009051480468002C7AD01C3454F8080C7F
:104680004D490860009802F0C1FA44F81C7CA576F8
:10469000002020766076606144F818BC44F810ACC5
:1046A00044F8148C0C9824F80C0C24F80A9C002074
:1046B000E077E810207705F00700E076217F012001
:1046C0008840A077E17E012088406077002020604C
:1046D0006060E060A0602062A0626062E0622063CF
:1046E000AFF2B43060631C3C002606E0002104F108
:1046F000540040F82610701CC6B2002EF6D020469A
:1047000002F052FB02F07EFA00901F4840F825406C
:10471000009802F07BFA204602F0DCFA02F072FA0E
:1047200000902148006860610020A0611E48006878
:1047300010B11D48006884611B4804603834A078BB
:104740001A49097808431949087020781849085C03
:104750006178084314F83819154A505417480078FE
:10476000401C16490870009802F050FA002027E01B
:1047700028E0000072000020650000206600002094
:104780006800002067000020C8340020800000205E
:1047900078000020740000205C00002064000020ED
:1047A000980000208800002084000020690000207C
:1047B0006A000020049800087C000020730000209C
:1047C000BDE8F88F009802F021FA4220BDE8F88F8A
:1047D0002DE9F05F04460F4691461E464FF0000B50
:1047E0002078052804D0012030700020BDE8F09F1B
:1047F00009F0800ABAF1000F04D029F080094FF0C7
:10480000010801E04FF000080020307002F0FAF9D2
:104810008346B9F1000F2CD0B9F1010F3BD0B9F1AB
:10482000020F03D0B9F1030F46D111E0208900EA4D
:104830000705BD4206D1B8F1010F05D12089A84373
:10484000208101E070203070584602F0DFF93AE034
:10485000208900EA070535B1B8F1010F05D120899B
:10486000A843208101E070203070584602F0CEF954
:1048700029E0208927EA0005BD4206D1B8F1010FE1
:1048800005D120892843208101E0702030705846EE
:1048900002F0BCF917E0208927EA000535B1B8F12C
:1048A000010F05D120892843208101E0702030705C
:1048B000584602F0ABF906E0584602F0A7F9002589
:1048C0006F20307000BF00BF28468FE72DE9F04110
:1048D00006460D460027FC48007820B110202870BD
:1048E0000020BDE8F08102F08DF90746F748046822
:1048F00084B100684068F549086005202070268171
:1049000000206060F2A0E060384602F07FF90020ED
:10491000287004E0384602F079F9722028702046A9
:10492000DFE730B501464A6808682AB9CC6860609C
:1049300028B10025456002E0106000B142608B683C
:1049400000259D6230BD2DE9F04106468846174698
:10495000B468002044F8300F24F8048C207900F06B
:10496000DF00207167712079303C88B93834A07835
:10497000D84909780843D74908702078D649085C97
:104980006178084314F83819D34A5054012500E0DF
:1049900000253046FFF7C5FF2846BDE8F0812DE928
:1049A000F0470446894615464FF0000AC64800788D
:1049B00020B10F2028702046BDE8F0872078052818
:1049C00003D0012028702046F6E702F01BF982464A
:1049D000606808B1012700E00027B9F1000F03D09B
:1049E000B9F1010F3DD119E08FB9B9A0E060002005
:1049F0002070B6480068606000202081B3480460E1
:104A0000504602F003F900202870002605E05046C9
:104A100002F0FCF849202870264629E0D4F80480EA
:104A200006E0022200214046FFF78DFFD8F8008003
:104A3000B8F1000FF5D1A6A0E06000202070A348D7
:104A40000068606000202081A0480460504602F0A9
:104A5000DDF8012F01D1FFF7C0F8002028700026F3
:104A600006E0504602F0D2F807202870264600BF24
:104A700000BF3046A0E72DE9F04105460E4614463A
:104A800000279148007820B1112020700020BDE857
:104A9000F08102F0B7F807462878052806D0384696
:104AA00002F0B4F8012020700020F0E7E8683060E0
:104AB0003068FFF703F88046384602F0A7F8002078
:104AC00020704046E3E72DE9F04105460E461446C6
:104AD00000277D48007818B112202070BDE8F081D1
:104AE00002F090F807462878052805D0384602F0ED
:104AF0008DF801202070F1E7EE60384602F086F86C
:104B00000020207000BFE9E7F0B51446059E734F02
:104B10003F6897F8347047F02007DFF8C0C1DCF831
:104B200000C08CF834700027DFF8B0C1DCF800C09A
:104B30008CF83570694F3F683E63684F3F68B962D3
:104B40000C828B74654F3F688F6047680F60002749
:104B50004F60C860456805B1696041605F4F3F685C
:104B600097F838205C4FBF5CDFF870C1DCF800C0FC
:104B70009CF839C027EA0C07DFF85CC10CF802701A
:104B80006746BF5C5FB9554F3F6897F83AC0514FD1
:104B90003F7827EA0C07DFF83CC18CF80070F0BDC5
:104BA0002DE9F04F89B005460F4691469A46129E70
:104BB000002002904448007828B102203070002084
:104BC00009B0BDE8F08F4648007818B10D2030706C
:104BD0000020F5E72878052803D001203070002058
:104BE000EEE709F0800BBBF1000F04D009F07F095C
:104BF0004FF0010801E04FF0000802F003F80290C6
:104C0000B9F1000F4AD0B9F1010F78D0B9F1020F14
:104C100003D0B9F1030F71D120E0288900EA07041D
:104C2000BC420FD1B8F1010F02D12889A0432881DD
:104C30002A4800688485029801F0E8FF002030705F
:104C40002046BDE74B463A4604A92846CDF800A0C9
:104C5000FFF75AFF029801F0D9FF78E0288900EAAF
:104C600007047CB1B8F1010F02D12889A043288143
:104C70001A4800688485029801F0C8FF002030704F
:104C800020469DE74B463A4604A92846CDF800A0A9
:104C9000FFF73AFF029801F0B9FF58E0288927EAA8
:104CA0000004BC421ED1B8F1010F02D12889204373
:104CB00028810A4800688485029801F0A7FF002037
:104CC000307020467CE71AE0650000205400002088
:104CD0003F000000690000206A00002078000020EA
:104CE000660000204B463A4604A92846CDF800A0AD
:104CF000FFF70AFF029801F089FF28E01FE02889EA
:104D000027EA00047CB1B8F1010F02D128892043C1
:104D10002881B34800688485029801F077FF00205D
:104D2000307020464CE74B463A4604A92846CDF859
:104D300000A0FFF7E9FE029801F068FF07E0029883
:104D400001F064FF00246F203070204638E700BF78
:104D5000FEF743FF01F056FF0290A148006890F86B
:104D6000350020B39E48006890F83500039000207D
:104D70009B49096881F8350004A8FFF7D2FD00209F
:104D80009749096881F83400029801F03FFF002438
:104D90000398012805D0022802D10E20307003E0CC
:104DA00000BF0A20307000BF00BF204608E78C48D3
:104DB0000068848DB8F1010F1ED1B9F1000F0ED03B
:104DC000B9F1010F0CD0B9F1020F03D0B9F1030F03
:104DD0000AD100E000BF2889A04328810BE000BF72
:104DE00028892043288106E0029801F00FFF6F20F8
:104DF00030700020E4E600BF029801F007FF0020B9
:104E000030702046DCE670B5002501F0FBFE05465B
:104E100073480068848D284601F0F8FE204670BD76
:104E20002DE9FC5F0446894692461E46002000900C
:104E30002078052804D0012030700020BDE8FC9FB8
:104E400001F0E0FE0090BAF1000F03D0BAF1010FBB
:104E50000AD104E0208920EA090020810BE02089A2
:104E600040EA0900208106E0009801F0CFFE7120A1
:104E700030700020E2E700BF4FF0000B656859E09A
:104E8000A87C50B301283BD0022802D0032848D187
:104E900012E02089298A00EA0107288AB8420AD14B
:104EA000002239462846FFF74EFD8046B8F1010F33
:104EB00001D14FF0010B3BE02089298A00EA01076C
:104EC00057B1002239462846FFF73DFD8046B8F12C
:104ED000010F01D14FF0010B2AE0288A218920EA35
:104EE0000107288AB8420AD1002239462846FFF72E
:104EF0002AFD8046B8F1010F01D14FF0010B17E0F8
:104F0000288A218920EA010757B10022394628461C
:104F1000FFF719FD8046B8F1010F01D14FF0010BE9
:104F200006E0009801F072FE6F203070002085E7E7
:104F300000BF2D68002DA3D1009801F067FEBBF1E2
:104F4000010F01D1FEF749FE01F05CFE00902089BF
:104F50000190009801F05AFE0020307001986DE732
:104F60002DE9F04104460D4600272078052804D09D
:104F7000012028700020BDE8F08101F043FE0746C3
:104F80002689384601F042FE002028703046F2E7BC
:104F90002DE9F04150211348FFF790F800250EE06D
:104FA000681C86B20F4800EB051400EB06170020C2
:104FB00020706760AFF2E820E060681C85B2042DC5
:104FC000EED3084800EB0514002020706060AFF2BB
:104FD0000030E060034804490860BDE8F08100004B
:104FE0007800002078300020540000202DE9FC5F7C
:104FF00005460F4691469A460020009001F002FEB9
:1050000000906F480468006820B16D4800684068EF
:105010006B490860009801F0F9FD2CB95A208AF814
:1050200000000020BDE8FC9FA8462E46781E019097
:105030004FF0000B05E04E44C8F80060B0460BF19D
:10504000010B01988345F6D30020C8F800002560C5
:1050500065602761E760C4F808908AF80000204680
:10506000E0E72DE9F04104460D46002701F0CAFDB6
:105070000746206968B16668306860602069401E34
:105080002061384601F0C2FD002028703046BDE89E
:10509000F081384601F0BAFD5D2028700020F6E767
:1050A0002DE9F04106460C46154600274548007894
:1050B00020B1112028700020BDE8F08101F0A2FD90
:1050C0000746706920602068FEF7F8FC8046384685
:1050D00001F09CFD002028704046EDE72DE9F041ED
:1050E00005460E46144600273648007818B11220AF
:1050F0002070BDE8F08101F085FD07466E613846FD
:1051000001F084FD0020207000BFF2E770B5044676
:105110000D46002601F076FD0646D4E903108842CC
:1051200004D3304601F072FD5E2070BD60682860D7
:1051300065602069401C2061304601F067FD002059
:10514000F3E770B505460C46002601F05BFD064608
:105150002868206068686060A868A060E868E0600F
:1051600028692061304601F051FDD4E90301401A5D
:105170006061002070BD70B578211348FEF79EFF76
:1051800000240EE004EB44000F4901EBC005601C55
:1051900000EB400001EBC00068600CA06861601C7F
:1051A00084B2042CEED304EB4400074901EBC005A4
:1051B0000020686005A0686108460149086070BD6C
:1051C0008C00002065000020583D00203F000000BA
:1051D0002DE9F04106460D464FF0000830780228D0
:1051E00004D0012028700020BDE8F08101F00AFD04
:1051F00080467468E08A78B12169081D20610F68D3
:10520000E08A401EE082A1682069884201D160687E
:1052100020610020287002E01F20287000274046EF
:1052200001F0F4FC3846DFE72DE9F04106460F4671
:105230004FF00008F748007810B10020BDE8F08179
:1052400001F0E0FC8046F4480468006820B1F248B0
:1052500000684068F0490860404601F0D7FCFCB1A6
:1052600001F0D0FC8046ED480568D5B100680068C3
:10527000EA490860404601F0C9FC6E6006EB870011
:10528000A860EE602E61AF820020E88202202070CC
:10529000002020816560E2A060612046FFF7C4F92C
:1052A00008E0DD4800686060DB480460404601F0CB
:1052B000ADFC00242046C1E72DE9F04704468946AD
:1052C00015464FF0000A2078022804D001202870EB
:1052D0002046BDE8F087CF48007818B10F2028702D
:1052E0002046F6E701F08EFC8246A07A10B14FF01E
:1052F000010801E04FF00008B9F1000F03D0B9F147
:10530000010F49D121E0B8F1000F17D1C4A06061AD
:105310006668C24800683060C0480660002020709F
:10532000BD480068606000202081BB480460504692
:1053300001F06CFC00202870002705E0504601F0C9
:1053400065FC4920287027462DE005E00223042251
:1053500000212046FFF7F0F8A07A0028F6D1B0A08F
:1053600060616668AD4800683060AC480660002047
:105370002070A9480068606000202081A648046071
:10538000504601F043FCB8F1010F01D1FEF725FCB6
:1053900000202870002706E0504601F037FC072067
:1053A0002870274600BF00BF384692E770B5054613
:1053B000002601F027FC06466C686068E0606068C3
:1053C00020610020E082304601F020FC002070BD0A
:1053D0002DE9F0470746884615464FF00009387812
:1053E000022804D0012028700020BDE8F0878948F9
:1053F000007818B1022028700020F6E7894800786C
:1054000018B10D2028700020EFE701F0FBFB81466A
:105410007C68E08A98B12169081D20610E68E08AE5
:10542000401EE082A1682069884201D16068206145
:10543000484601F0EBFB002028703046D5E77A485B
:10544000006890F8340040F004007749096881F85A
:10545000340000207449096881F8350072480068FA
:10546000C0F830803846FFF7A7F8484601F0CEFB79
:10547000FEF7B3FB01F0C6FB81466B48006890F86D
:10548000350020B101280DD002280AD105E0664878
:105490000068466A002028700DE000260E20287063
:1054A00009E000BF394660480068FFF730F8002681
:1054B0000A20287000BF00BF00205B49096881F8FE
:1054C00034005949096881F8350057490968C861AD
:1054D000554909680862544909684862484601F01C
:1054E00095FB304681E72DE9F04104460F4615460D
:1054F0004FF000082078022804D0012028700020F6
:10550000BDE8F08101F07EFB8046A07A20B3002642
:105510007FB1012F0CD107E0022304220021204695
:10552000FFF70AF8701CC6B2A07A0028F4D109E08F
:1055300000BF0223042200212046FEF7FDFF701C5D
:10554000C6B200BF00BF404601F060FBFEF745FB5E
:105550000E2028703046D3E7404601F057FB00206C
:10556000287000BFCCE72DE9F04105460E46002724
:105570002878022802D00120BDE8F08101F042FB2A
:105580000746A87A60B10023042231462846FEF778
:10559000D3FF384601F03AFBFEF71FFB0020EBE794
:1055A0006C68E08AA18A884204DB384601F02EFB51
:1055B0001E20E1E7E168081DE0600E60E08A401C03
:1055C000E082D4E90210884201D16068E060384688
:1055D00001F01CFB0020CFE72DE9F04105460E4607
:1055E00000272878022802D00120BDE8F08101F0D0
:1055F00009FB0746A87AC8B1002304223146284691
:10560000FEF79AFF384601F001FBFEF7E6FA0020AC
:10561000EBE7000065000020500000209000002013
:105620003F00000066000020780000206C68E08ADF
:10563000A18A884204DB384601F0E8FA1E20D4E74C
:1056400061682069884201D1A06820612069001F3B
:10565000206120690660E08A401CE082384601F043
:10566000D5FA0020C1E72DE9F04105460F46164660
:105670004FF000082878022802D00120BDE8F08110
:1056800001F0C0FA8046A87AE8B106F0010050B1F6
:1056900005E00023042239462846FEF74DFFA87A8C
:1056A0000028F6D105E00023042239462846FEF7FB
:1056B00043FF404601F0AAFA06F0040008B9FEF7DD
:1056C0008CFA0020DAE76C68E08AA18A884204DB61
:1056D000404601F09BFA1E20D0E706F0020058B1C8
:1056E00061682069884201D1A06820612069001F9B
:1056F00020612069076009E0E168081DE0600F6033
:10570000D4E90210884201D16068E060E08A401C60
:10571000E082404601F07AFA0020AFE72DE9F04739
:1057200005460C464FF0000A2878022802D00120D6
:10573000BDE8F08701F066FA8246A87A207405F188
:105740000B0804F10809002705E018F8010B09F817
:10575000010B781CC7B2082FF7D36E68F08A18B116
:1057600030690068206001E000202060F08AA0809D
:10577000B08AE080504601F049FA0020D8E72DE9D0
:10578000F04160211048FEF799FC00240DE0601CF8
:1057900086B204EB44000C4901EBC00506EB460061
:1057A00001EBC0072F60601C84B2032CEFD304EB25
:1057B0004400054901EBC005002028600846034964
:1057C0000860BDE8F0810000D03D0020900000207E
:1057D00070B5044600262078032801D0002070BD53
:1057E00001F010FA0646258915B12089401E208156
:1057F000304601F00BFA2846F1E770B50546002661
:10580000D748007808B1002070BD01F0FBF90646CA
:10581000D4480468006820B1D24800684068D14983
:105820000860304601F0F2F94CB103202070258168
:1058300000206060CCA060612046FEF7F5FE2046A7
:10584000E2E72DE9F0470446884615464FF0000987
:105850002078032804D0012028702046BDE8F08776
:10586000BF48007818B10F2028702046F6E701F0F5
:10587000C9F98146A07A08B1012700E00027B8F1F4
:10588000000F03D0B8F1010F3AD119E08FB9B6A0DB
:10589000606100202070B3480068606000202081B3
:1058A000B0480460484601F0B1F900202870002695
:1058B00005E0484601F0AAF949202870264626E06E
:1058C00005E00223012200212046FEF735FEA07AE2
:1058D0000028F6D1A4A0606100202070A1480068D3
:1058E0006060002020819F480460484601F08EF9E6
:1058F000012F01D1FEF771F900202870002606E083
:10590000484601F083F907202870264600BF00BFF3
:105910003046A3E72DE9F04105460E461446002720
:105920002878032803D001202070BDE8F0818C483E
:10593000007810B102202070F7E78C48007810B191
:105940000D202070F1E701F05DF90746288940B18C
:105950002889401E2881384601F058F9002020701F
:10596000E3E78348006890F8340040F00100804984
:10597000096881F8340000207D49096881F8350004
:105980007B48006806632846FEF716FE384601F09D
:105990003DF9FEF722F901F035F907467448006831
:1059A00090F8350020B1012809D0022806D102E084
:1059B000002020700BE00E20207008E000BF294678
:1059C0006B480068FEF7A3FD0A20207000BF00BFEF
:1059D00000206749096881F834006549096881F841
:1059E000350063490968C861614909680862384639
:1059F00001F00CF900BF98E72DE9F04104460F468D
:105A000015464FF000082078032804D001202870A4
:105A10000020BDE8F08101F0F5F88046A07A20B3BF
:105A200000267FB1012F0CD107E0022301220021C3
:105A30002046FEF781FD701CC6B2A07A0028F4D182
:105A400009E000BF0223012200212046FEF774FD79
:105A5000701CC6B200BF00BF404601F0D7F8FEF789
:105A6000BCF80E2028703046D3E7404601F0CEF84F
:105A70000020287000BFCCE770B5044600252078D0
:105A8000032801D0012070BD01F0BCF80546A07AC2
:105A900060B10023012219462046FEF74DFD28463D
:105AA00001F0B4F8FEF799F80020ECE720894FF6F2
:105AB000FF71884207D22089401C2081284601F0CE
:105AC000A5F80020DFE7284601F0A0F83320DAE748
:105AD0002DE9F04704460D464FF0000920780328D1
